{
  "_format": "hh-sol-artifact-1",
  "contractName": "CampaignFactory",
  "sourceName": "contracts/CampaignFactory.sol",
  "abi": [
    {
      "anonymous": false,
      "inputs": [
        {
          "indexed": true,
          "internalType": "address",
          "name": "campaignAddress",
          "type": "address"
        },
        {
          "indexed": true,
          "internalType": "address",
          "name": "ngo",
          "type": "address"
        },
        {
          "indexed": true,
          "internalType": "address",
          "name": "beneficiary",
          "type": "address"
        }
      ],
      "name": "CampaignCreated",
      "type": "event"
    },
    {
      "inputs": [
        {
          "internalType": "uint256",
          "name": "",
          "type": "uint256"
        }
      ],
      "name": "campaigns",
      "outputs": [
        {
          "internalType": "address",
          "name": "",
          "type": "address"
        }
      ],
      "stateMutability": "view",
      "type": "function"
    },
    {
      "inputs": [
        {
          "internalType": "address",
          "name": "_ngo",
          "type": "address"
        },
        {
          "internalType": "address",
          "name": "_beneficiary",
          "type": "address"
        },
        {
          "internalType": "string",
          "name": "_title",
          "type": "string"
        },
        {
          "internalType": "string",
          "name": "_description",
          "type": "string"
        },
        {
          "internalType": "uint256",
          "name": "_goalAmount",
          "type": "uint256"
        },
        {
          "internalType": "uint256",
          "name": "_deadline",
          "type": "uint256"
        },
        {
          "internalType": "enum Campaign.CampaignType",
          "name": "_type",
          "type": "uint8"
        },
        {
          "internalType": "string[]",
          "name": "milestoneNames",
          "type": "string[]"
        },
        {
          "internalType": "string[]",
          "name": "milestoneDescriptions",
          "type": "string[]"
        },
        {
          "internalType": "uint256[]",
          "name": "milestoneAmounts",
          "type": "uint256[]"
        },
        {
          "internalType": "uint256",
          "name": "_recurringWithdrawCap",
          "type": "uint256"
        },
        {
          "internalType": "uint256",
          "name": "_recurringPeriod",
          "type": "uint256"
        }
      ],
      "name": "createCampaign",
      "outputs": [
        {
          "internalType": "address",
          "name": "",
          "type": "address"
        }
      ],
      "stateMutability": "nonpayable",
      "type": "function"
    },
    {
      "inputs": [],
      "name": "getCampaigns",
      "outputs": [
        {
          "internalType": "address[]",
          "name": "",
          "type": "address[]"
        }
      ],
      "stateMutability": "view",
      "type": "function"
    }
  ],
  "bytecode": "0x608080604052346100165761298e908161001c8239f35b600080fdfe608060405260043610156200001357600080fd5b60003560e01c8063141961bc14620006585780632203f43c14620001155763a6b03633146200004157600080fd5b346200011057600036600319011262000110576040518060005480835260208093018091600080527f290decd9548b62a8d60345a988386fc84ba6bc95484008f6362f93160ef3e5639060005b86828210620000f2578686620000a782880383620006ea565b604051928392818401908285525180915260408401929160005b828110620000d157505050500390f35b83516001600160a01b031685528695509381019392810192600101620000c1565b83546001600160a01b0316855290930192600192830192016200008e565b600080fd5b34620001105761018036600319011262000110576004356001600160a01b038116810362000110576024356001600160a01b0381168103620001105760443567ffffffffffffffff81116200011057620001749036906004016200070d565b60643567ffffffffffffffff81116200011057620001979036906004016200070d565b90600460c4351015620001105760e43567ffffffffffffffff81116200011057620001c790369060040162000782565b906101043567ffffffffffffffff81116200011057620001ec90369060040162000782565b9167ffffffffffffffff6101243511620001105736602361012435011215620001105762000221610124356004013562000769565b91620002316040519384620006ea565b61012435600401358352602083019384366024610124356004013560051b61012435010111620001105760246101243501905b6024610124356004013560051b61012435010182106200064757505060c435600303620005df574260a435111562000582575b60c435600103620004f9578251845181149081620004ed575b81620004e2575b50156200049d575b60405195866120a881011067ffffffffffffffff6120a8890111176200046157906200037687969594620003466200038e946200032f6020978e6120a88d620008b190396001600160a01b039081166120a88e01908152908f168a8201526101806040820181905201906200080e565b906120a88b01820360606120a88d0101526200080e565b6084356120a88a01608081019190915260a43560a082015260c43560c082015280820360e0909101529062000850565b906120a8870182036101006120a88901015262000850565b916120a8850183036101206120a887010152519182815201919060005b8181106200048357505050610144356101406120a884010152610164356101606120a88401015203906000f08015620004775760018060a01b03166000549268010000000000000000841015620004615762000410846001602096016000556200069f565b81546001600160a01b0360039290921b82811b199091169085901b179091556040519381169116827f1260f646519b6441128edda4528afcfbcf3e46959be8f7c3d85d50f62eda7c68600080a48152f35b634e487b7160e01b600052604160045260246000fd5b6040513d6000823e3d90fd5b8251845285945060209384019390920191600101620003ab565b60405162461bcd60e51b815260206004820152601760248201527f496e76616c6964206d696c6573746f6e652073657475700000000000000000006044820152606490fd5b9050151589620002b7565b825181149150620002b0565b8251158062000578575b806200056e575b620002bf5760405162461bcd60e51b815260206004820152603160248201527f4e6f6e2d6d696c6573746f6e652063616d706169676e2073686f756c64206e6f604482015270742068617665206d696c6573746f6e657360781b6064820152608490fd5b508351156200050a565b5080511562000503565b60405162461bcd60e51b815260206004820152602f60248201527f446561646c696e65206d75737420626520696e2074686520667574757265206660448201526e6f7220416c6c4f724e6f7468696e6760881b6064820152608490fd5b60a43515620002975760405162461bcd60e51b815260206004820152603160248201527f446561646c696e65206d757374206265203020666f72206e6f6e2d416c6c4f726044820152704e6f7468696e672063616d706169676e7360781b6064820152608490fd5b813581526020918201910162000264565b346200011057602036600319011262000110576004356000548110156200011057620006866020916200069f565b905460405160039290921b1c6001600160a01b03168152f35b906000918254811015620006d6578280527f290decd9548b62a8d60345a988386fc84ba6bc95484008f6362f93160ef3e563019190565b634e487b7160e01b83526032600452602483fd5b90601f8019910116810190811067ffffffffffffffff8211176200046157604052565b81601f82011215620001105780359067ffffffffffffffff821162000461576040519262000746601f8401601f191660200185620006ea565b828452602083830101116200011057816000926020809301838601378301015290565b67ffffffffffffffff8111620004615760051b60200190565b9080601f8301121562000110578135906200079d8262000769565b92620007ad6040519485620006ea565b828452602092838086019160051b830101928084116200011057848301915b848310620007dd5750505050505090565b823567ffffffffffffffff81116200011057869162000802848480948901016200070d565b815201920191620007cc565b919082519283825260005b8481106200083b575050826000602080949584010152601f8019910116010190565b60208183018101518483018201520162000819565b908082519081815260208091019281808460051b8301019501936000915b8483106200087f5750505050505090565b90919293949584806200089f600193601f198682030187528a516200080e565b98019301930191949392906200086e56fe60806040523462000c1457620020a880380390816200001e8162000c19565b91823961018081838101031262000c14576200003a8162000c3f565b91620000496020830162000c3f565b60408301519093906001600160401b03811162000c1457620000719083850190850162000c54565b60608401519093906001600160401b03811162000c1457620000999084830190830162000c54565b90608081015160a08201519060c083015193600485101562000c145760e08401516001600160401b03811162000c1457620000da9088860190860162000cde565b6101008501519098906001600160401b03811162000c1457620001039089870190870162000cde565b610120860151909a90986001600160401b038a1162000c1457808701601f8b890101121562000c145789870151620001456200013f8262000cc6565b62000c19565b9a6020808d848152019260051b828b010101928901831162000c14578801602001905b82821062000c035750505061014086015161016090960151600080546001600160a01b039a8b166001600160a01b0319918216179091556001805493909a169216919091179097558051906001600160401b038211620006835760025490600182811c9216801562000bf8575b6020831014620006625781601f84931162000b97575b50602090601f831160011462000b195760009262000b0d575b50508160011b916000199060031b1c1916176002555b8051906001600160401b038211620006835760035490600182811c9216801562000b02575b6020831014620006625781601f84931162000a90575b50602090601f831160011462000a0157600092620009f5575b50508160011b916000199060031b1c1916176003555b6005556004805461ffff191660ff851617905560038303620009e95742811115620009a4576007555b6002821462000984575b50600114159050620008f6578151815181149081620008ea575b81620008df575b50156200089a5760005b82518110156200088557620002f8818462000d5e565b5162000305828662000d5e565b5162000312838562000d5e565b51604051929091906001600160401b0360a0850190811190851117620006835760a084016040528352602083015260408201526000606082015260405180602081011060018060401b03602083011117620006835760208101604052600081526080820152600c54906801000000000000000082101562000683576001820180600c558210156200086f57600c600052805180517fdf6966c971051c3d54ec59162606531493a51404a002842f56009d7e5cf4a8c792916001600160401b03821162000683576005850284015490600182811c9216801562000864575b6020831014620006625781601f8493116200080a575b50602090601f83116001146200078f5760009262000783575b50508160011b916000199060031b1c191617600584028301555b60208101518051906001600160401b038211620006835760016005860285010154600181811c9116801562000778575b60208210146200066257601f811162000727575b50602090601f8311600114620006a55760809392916000918362000699575b50508160011b916000199060031b1c191617600160058602850101555b6040810151600260058602850101556003600585028401016060820151151560ff80198354169116179055015180519060018060401b038211620006835760046005850284010154600181811c9116801562000678575b60208210146200066257601f811162000611575b50602090601f8311600114620005925791806005926004959460009262000586575b50508160011b916000199060031b1c19161793020101555b60001981146200057057600101620002e2565b634e487b7160e01b600052601160045260246000fd5b01519050388062000545565b9060046005860285010160005260206000209160005b601f1985168110620005f85750926005926001926004969583601f19811610620005de575b505050811b0193020101556200055d565b015160001960f88460031b161c19169055388080620005cd565b91926020600181928685015181550194019201620005a8565b6004600586028501016000526020600020601f840160051c8101602085106200065a575b601f830160051c820181106200064d57505062000523565b6000815560010162000635565b508062000635565b634e487b7160e01b600052602260045260246000fd5b90607f16906200050f565b634e487b7160e01b600052604160045260246000fd5b0151905038806200049b565b9060016005870286010160005260206000209160005b601f19851681106200070e575091839160019360809695601f19811610620006f4575b505050811b0160016005860285010155620004b8565b015160001960f88460031b161c19169055388080620006de565b91926020600181928685015181550194019201620006bb565b6001600587028601016000526020600020601f840160051c81016020851062000770575b601f830160051c82018110620007635750506200047c565b600081556001016200074b565b50806200074b565b90607f169062000468565b0151905038806200041e565b92506005860285016000526020600020906000935b601f1984168510620007ee576001945083601f19811610620007d4575b505050811b016005840283015562000438565b015160001960f88460031b161c19169055388080620007c1565b81810151835560209485019460019093019290910190620007a4565b9091506005860285016000526020600020601f840160051c8101602085106200085c575b90849392915b601f830160051c820181106200084c57505062000405565b6000815585945060010162000834565b50806200082e565b91607f1691620003ef565b634e487b7160e01b600052603260045260246000fd5b505050505b604051611314908162000d748239f35b60405162461bcd60e51b815260206004820152601760248201527f496e76616c6964206d696c6573746f6e652073657475700000000000000000006044820152606490fd5b9050151538620002d8565b845181149150620002d1565b905115918262000979575b50816200096e575b506200088a5760405162461bcd60e51b815260206004820152603160248201527f4e6f6e2d6d696c6573746f6e652063616d706169676e2073686f756c64206e6f604482015270742068617665206d696c6573746f6e657360781b6064820152608490fd5b905051153862000909565b511591503862000901565b60085581600955428242031162000570576001914203600a5538620002b7565b60405162461bcd60e51b815260206004820152601e60248201527f446561646c696e65206d75737420626520696e207468652066757475726500006044820152606490fd5b506000600755620002ad565b0151905038806200026e565b6003600090815293507fc2575a0e9e593c00f959f8c92f12db2869c3395a3b0502d05e2516446f71f85b91905b601f198416851062000a74576001945083601f1981161062000a5a575b505050811b0160035562000284565b015160001960f88460031b161c1916905538808062000a4b565b8181015183556020948501946001909301929091019062000a2e565b60036000529091507fc2575a0e9e593c00f959f8c92f12db2869c3395a3b0502d05e2516446f71f85b601f840160051c81016020851062000afa575b90849392915b601f830160051c8201811062000aea57505062000255565b6000815585945060010162000ad2565b508062000acc565b91607f16916200023f565b01519050388062000204565b6002600090815293506000805160206200208883398151915291905b601f198416851062000b7b576001945083601f1981161062000b61575b505050811b016002556200021a565b015160001960f88460031b161c1916905538808062000b52565b8181015183556020948501946001909301929091019062000b35565b600260005290915060008051602062002088833981519152601f840160051c81016020851062000bf0575b90849392915b601f830160051c8201811062000be0575050620001eb565b6000815585945060010162000bc8565b508062000bc2565b91607f1691620001d5565b815181526020918201910162000168565b600080fd5b6040519190601f01601f191682016001600160401b038111838210176200068357604052565b51906001600160a01b038216820362000c1457565b919080601f8401121562000c145782516001600160401b038111620006835760209062000c8a601f8201601f1916830162000c19565b9281845282828701011162000c145760005b81811062000cb257508260009394955001015290565b858101830151848201840152820162000c9c565b6001600160401b038111620006835760051b60200190565b81601f8201121562000c145780519162000cfc6200013f8462000cc6565b9182938084526020808095019160051b8301019280841162000c1457848301915b84831062000d2e5750505050505090565b82516001600160401b03811162000c1457869162000d528484809489010162000c54565b81520192019162000d1d565b80518210156200086f5760209160051b01019056fe608080604052600436101561001357600080fd5b60003560e01c908162b3704414610f7557508063200d2ed214610f485780632636b94514610f2a57806329dcb0cf14610f0c5780632e41ae7d14610b3457806338af3eed14610b0b5780633f7a86f5146109dc5780634a79d50c1461093657806351cc5cf2146109185780635c6a0246146108f55780637284e4161461081357806374580b7e14610689578063759dadce1461065f578063798f0ef114610570578063895f643014610552578063980e784414610508578063a113074b146104df578063ab231511146104c1578063c75d4c7e1461031b578063cc6cb19a146102dd578063d7557f1814610291578063e89e4ed6146101ef5763ed88c68e1461011b57600080fd5b60003660031901126101ea5760ff60045460081c1660038110156101d4576101439015611123565b34156101a15733600052600d6020526040600020610162348254611165565b905561017034600654611165565b6006556040513481527f264f630d9efa0d07053a31163641d9fcc0adafc9d9e76f1c37c2ce3a558d2c5260203392a2005b60405162461bcd60e51b815260206004820152600b60248201526a139bc8115512081cd95b9d60aa1b6044820152606490fd5b634e487b7160e01b600052602160045260246000fd5b600080fd5b346101ea5760203660031901126101ea57600435600c548110156101ea57610219610265916110d2565b5061028d61022682610fec565b9161023360018201610fec565b600282015491610273610250600460ff6003850154169301610fec565b9260405197889760a0895260a0890190611092565b908782036020890152611092565b926040860152151560608501528382036080850152611092565b0390f35b346101ea5760003660031901126101ea576102b760018060a01b03600054163314611172565b60ff60045460081c1660038110156101d4576102d39015611123565b6102db6111f0565b005b346101ea5760203660031901126101ea576004356001600160a01b038116908190036101ea57600052600d6020526020604060002054604051908152f35b346101ea5760203660031901126101ea5760043560018060a01b0361034581600054163314611172565b60045460ff8160081c169060038210156101d45761036560ff9215611123565b1660048110156101d45760020361048457610385600a5460095490611165565b421061043f57600854821161040557600080808481946103a7824710156111af565b42600a55600154168282156103fc575bf1156103f05760207f4a37b25aab49761ecf63117fe82b98d750917451133cf797507bc9fb5b96044a91604051908152a147156102d357005b6040513d6000823e3d90fd5b506108fc6103b7565b60405162461bcd60e51b81526020600482015260126024820152710416d6f756e742065786365656473206361760741b6044820152606490fd5b60405162461bcd60e51b815260206004820152601a60248201527f5769746864726177616c206e6f742079657420616c6c6f7765640000000000006044820152606490fd5b60405162461bcd60e51b81526020600482015260156024820152744e6f7420726563757272696e672066756e64696e6760581b6044820152606490fd5b346101ea5760003660031901126101ea576020600a54604051908152f35b346101ea5760003660031901126101ea576000546040516001600160a01b039091168152602090f35b346101ea5760003660031901126101ea5761052e60018060a01b03600054163314611172565b60ff60045460081c1660038110156101d45761054a9015611123565b6102db6112a8565b346101ea5760003660031901126101ea576020600954604051908152f35b346101ea5760203660031901126101ea5760043560018060a01b0361059a81600054163314611172565b60045460ff8160081c169060038210156101d4576105ba60ff9215611123565b1660048110156101d45761062357600080808481946105db824710156111af565b6001541682821561061a575bf1156103f05760207f4a37b25aab49761ecf63117fe82b98d750917451133cf797507bc9fb5b96044a91604051908152a1005b506108fc6105e7565b60405162461bcd60e51b81526020600482015260146024820152734e6f7420666c657869626c652066756e64696e6760601b6044820152606490fd5b346101ea5760003660031901126101ea5760ff6004541660405160048210156101d4576020918152f35b346101ea5760003660031901126101ea576000546001600160a01b03906106b39082163314611172565b60045460ff8160081c169060038210156101d4576106d360ff9215611123565b1660048110156101d45760036106e99114611226565b6106f7600754421015611267565b600b5460ff81166107dc57600654600554116107a45747156107745760008080936001829460ff191617600b5560015416479082821561076b575bf1156103f0577f4a37b25aab49761ecf63117fe82b98d750917451133cf797507bc9fb5b96044a602047604051908152a16102db6111f0565b506108fc610732565b60405162461bcd60e51b81526020600482015260086024820152674e6f2066756e647360c01b6044820152606490fd5b60405162461bcd60e51b815260206004820152601060248201526f11dbd85b081b9bdd081c995858da195960821b6044820152606490fd5b60405162461bcd60e51b815260206004820152600f60248201526e105b1c9958591e4818db185a5b5959608a1b6044820152606490fd5b346101ea5760003660031901126101ea57604051600060035461083581610fb2565b808452906001908181169081156108ce5750600114610873575b61028d8461085f81860382610f90565b604051918291602083526020830190611092565b6003600090815292507fc2575a0e9e593c00f959f8c92f12db2869c3395a3b0502d05e2516446f71f85b5b8284106108b657505050810160200161085f8261084f565b8054602085870181019190915290930192810161089e565b60ff191660208087019190915292151560051b8501909201925061085f915083905061084f565b346101ea5760003660031901126101ea57602060ff600b54166040519015158152f35b346101ea5760003660031901126101ea576020600854604051908152f35b346101ea5760003660031901126101ea57604051600060025461095881610fb2565b808452906001908181169081156108ce57506001146109815761028d8461085f81860382610f90565b6002600090815292507f405787fa12a823e0f2b7631cc41b3ba8828b3321ca811111fa75cd3aa3bb5ace5b8284106109c457505050810160200161085f8261084f565b805460208587018101919091529093019281016109ac565b346101ea5760003660031901126101ea5760045460ff8160081c169060038210156101d457610a0d60ff9215611123565b1660048110156101d4576003610a239114611226565b610a31600754421015611267565b6006546005541115610ac65733600052600d60205260406000205415610a895733600052600d6020526000808080604081208181549155818115610a80575b3390f1156103f057471561054a57005b506108fc610a70565b60405162461bcd60e51b8152602060048201526015602482015274139bc8191bdb985d1a5bdb881d1bc81c99599d5b99605a1b6044820152606490fd5b60405162461bcd60e51b815260206004820152601b60248201527f476f616c20726561636865643b2063616e6e6f7420726566756e6400000000006044820152606490fd5b346101ea5760003660031901126101ea576001546040516001600160a01b039091168152602090f35b346101ea5760403660031901126101ea5760243567ffffffffffffffff8082116101ea57366023830112156101ea578160040135818111610e125760405192610b87601f8301601f191660200185610f90565b81845236602483830101116101ea57816000926024602093018387013784010152610bbd60018060a01b03600054163314611172565b60045460ff8160081c169060038210156101d457610bdd60ff9215611123565b1660048110156101d457600103610ed157600c546004351015610e9857610c056004356110d2565b509060ff600383015416610e605747600283015411610e28578251908111610e1257610c346004830154610fb2565b601f8111610dcb575b50806020601f8211600114610d5e57600091610d53575b508160011b916000199060031b1c19161760048201555b600160ff19600383015416176003820155600080808060018060a01b0360015416600286015490828215610d4a575bf1156103f05760027fd22f69c6d4024c0a563aa2532097feffb1ad6071959a74d1621dca2c72f680d89101546040519081526040602082015280610ce5600435946040830190611092565b0390a260016000600c54905b818110610d01575b50506102d357005b60ff6003610d0e836110d2565b5001541615610d3e576000198114610d2857600101610cf1565b634e487b7160e01b600052601160045260246000fd5b50505060008180610cf9565b506108fc610c9a565b905083015184610c54565b91506004830160005260206000206000925b601f1983168410610db3576001935082601f19811610610d9a575b5050811b016004820155610c6b565b85015160001960f88460031b161c191690558480610d8b565b85810151825560209384019360019092019101610d70565b600483016000526020600020601f830160051c810160208410610e0b575b601f830160051c82018110610dff575050610c3d565b60008155600101610de9565b5080610de9565b634e487b7160e01b600052604160045260246000fd5b60405162461bcd60e51b815260206004820152601060248201526f4e6f7420656e6f7567682066756e647360801b6044820152606490fd5b60405162461bcd60e51b815260206004820152601060248201526f105b1c9958591e481c995b19585cd95960821b6044820152606490fd5b60405162461bcd60e51b8152602060048201526011602482015270496e76616c6964206d696c6573746f6e6560781b6044820152606490fd5b60405162461bcd60e51b8152602060048201526013602482015272139bdd081b5a5b195cdd1bdb994b58985cd959606a1b6044820152606490fd5b346101ea5760003660031901126101ea576020600754604051908152f35b346101ea5760003660031901126101ea576020600554604051908152f35b346101ea5760003660031901126101ea5760ff60045460081c1660405160038210156101d4576020918152f35b346101ea5760003660031901126101ea576020906006548152f35b90601f8019910116810190811067ffffffffffffffff821117610e1257604052565b90600182811c92168015610fe2575b6020831014610fcc57565b634e487b7160e01b600052602260045260246000fd5b91607f1691610fc1565b906040519182600082549261100084610fb2565b90818452600194858116908160001461106f575060011461102c575b505061102a92500383610f90565b565b9093915060005260209081600020936000915b81831061105757505061102a9350820101388061101c565b8554888401850152948501948794509183019161103f565b91505061102a94506020925060ff191682840152151560051b820101388061101c565b919082519283825260005b8481106110be575050826000602080949584010152601f8019910116010190565b60208183018101518483018201520161109d565b600c5481101561110d57600590600c600052027fdf6966c971051c3d54ec59162606531493a51404a002842f56009d7e5cf4a8c70190600090565b634e487b7160e01b600052603260045260246000fd5b1561112a57565b60405162461bcd60e51b815260206004820152601360248201527243616d706169676e206e6f742061637469766560681b6044820152606490fd5b91908201809211610d2857565b1561117957565b60405162461bcd60e51b815260206004820152600e60248201526d139bdd08185d5d1a1bdc9a5e995960921b6044820152606490fd5b156111b657565b60405162461bcd60e51b8152602060048201526012602482015271496e73756666696369656e742066756e647360701b6044820152606490fd5b61010061ff001960045416176004557f47768825bbd1c23d8787fdaa8500ebadc117722c311c5ea7d658a5bb66135bd7600080a1565b1561122d57565b60405162461bcd60e51b81526020600482015260126024820152714e6f7420616c6c2d6f722d6e6f7468696e6760701b6044820152606490fd5b1561126e57565b60405162461bcd60e51b815260206004820152601260248201527110d85b5c185a59db881b9bdd08195b99195960721b6044820152606490fd5b61020061ff001960045416176004557f123d4f203b2b83bfe9f45903402bb88193cc56a43371d97ab5a51bd1817d8586600080a156fea2646970667358221220952de3ccf2ef02391a48d4de9eb75d1595c6e51773ccd054e0ecbb5a45ed393664736f6c63430008130033405787fa12a823e0f2b7631cc41b3ba8828b3321ca811111fa75cd3aa3bb5acea2646970667358221220332c8b4b6911f50633f6df91d3c79f4340bf151e2cf0515c7a37d4404fd9f80164736f6c63430008130033",
  "linkReferences": {},
  "deployedLinkReferences": {}
}