{"contracts/CampaignFactory.sol":{"CampaignFactory":{"abi":[{"anonymous":false,"inputs":[{"indexed":true,"internalType":"address","name":"campaignAddress","type":"address"},{"indexed":true,"internalType":"address","name":"ngo","type":"address"},{"indexed":true,"internalType":"address","name":"beneficiary","type":"address"}],"name":"CampaignCreated","type":"event"},{"inputs":[{"internalType":"uint256","name":"","type":"uint256"}],"name":"campaigns","outputs":[{"internalType":"address","name":"","type":"address"}],"stateMutability":"view","type":"function"},{"inputs":[{"internalType":"address","name":"_ngo","type":"address"},{"internalType":"address","name":"_beneficiary","type":"address"},{"internalType":"string","name":"_title","type":"string"},{"internalType":"string","name":"_description","type":"string"},{"internalType":"uint256","name":"_goalAmount","type":"uint256"},{"internalType":"uint256","name":"_deadline","type":"uint256"},{"internalType":"enum Campaign.CampaignType","name":"_type","type":"uint8"},{"internalType":"string[]","name":"milestoneNames","type":"string[]"},{"internalType":"string[]","name":"milestoneDescriptions","type":"string[]"},{"internalType":"uint256[]","name":"milestoneAmounts","type":"uint256[]"},{"internalType":"uint256","name":"_recurringWithdrawCap","type":"uint256"},{"internalType":"uint256","name":"_recurringPeriod","type":"uint256"}],"name":"createCampaign","outputs":[{"internalType":"address","name":"","type":"address"}],"stateMutability":"nonpayable","type":"function"},{"inputs":[],"name":"getCampaigns","outputs":[{"internalType":"address[]","name":"","type":"address[]"}],"stateMutability":"view","type":"function"}],"evm":{"bytecode":{"linkReferences":{},"object":"608080604052346100165761298e908161001c8239f35b600080fdfe608060405260043610156200001357600080fd5b60003560e01c8063141961bc14620006585780632203f43c14620001155763a6b03633146200004157600080fd5b346200011057600036600319011262000110576040518060005480835260208093018091600080527f290decd9548b62a8d60345a988386fc84ba6bc95484008f6362f93160ef3e5639060005b86828210620000f2578686620000a782880383620006ea565b604051928392818401908285525180915260408401929160005b828110620000d157505050500390f35b83516001600160a01b031685528695509381019392810192600101620000c1565b83546001600160a01b0316855290930192600192830192016200008e565b600080fd5b34620001105761018036600319011262000110576004356001600160a01b038116810362000110576024356001600160a01b0381168103620001105760443567ffffffffffffffff81116200011057620001749036906004016200070d565b60643567ffffffffffffffff81116200011057620001979036906004016200070d565b90600460c4351015620001105760e43567ffffffffffffffff81116200011057620001c790369060040162000782565b906101043567ffffffffffffffff81116200011057620001ec90369060040162000782565b9167ffffffffffffffff6101243511620001105736602361012435011215620001105762000221610124356004013562000769565b91620002316040519384620006ea565b61012435600401358352602083019384366024610124356004013560051b61012435010111620001105760246101243501905b6024610124356004013560051b61012435010182106200064757505060c435600303620005df574260a435111562000582575b60c435600103620004f9578251845181149081620004ed575b81620004e2575b50156200049d575b60405195866120a881011067ffffffffffffffff6120a8890111176200046157906200037687969594620003466200038e946200032f6020978e6120a88d620008b190396001600160a01b039081166120a88e01908152908f168a8201526101806040820181905201906200080e565b906120a88b01820360606120a88d0101526200080e565b6084356120a88a01608081019190915260a43560a082015260c43560c082015280820360e0909101529062000850565b906120a8870182036101006120a88901015262000850565b916120a8850183036101206120a887010152519182815201919060005b8181106200048357505050610144356101406120a884010152610164356101606120a88401015203906000f08015620004775760018060a01b03166000549268010000000000000000841015620004615762000410846001602096016000556200069f565b81546001600160a01b0360039290921b82811b199091169085901b179091556040519381169116827f1260f646519b6441128edda4528afcfbcf3e46959be8f7c3d85d50f62eda7c68600080a48152f35b634e487b7160e01b600052604160045260246000fd5b6040513d6000823e3d90fd5b8251845285945060209384019390920191600101620003ab565b60405162461bcd60e51b815260206004820152601760248201527f496e76616c6964206d696c6573746f6e652073657475700000000000000000006044820152606490fd5b9050151589620002b7565b825181149150620002b0565b8251158062000578575b806200056e575b620002bf5760405162461bcd60e51b815260206004820152603160248201527f4e6f6e2d6d696c6573746f6e652063616d706169676e2073686f756c64206e6f604482015270742068617665206d696c6573746f6e657360781b6064820152608490fd5b508351156200050a565b5080511562000503565b60405162461bcd60e51b815260206004820152602f60248201527f446561646c696e65206d75737420626520696e2074686520667574757265206660448201526e6f7220416c6c4f724e6f7468696e6760881b6064820152608490fd5b60a43515620002975760405162461bcd60e51b815260206004820152603160248201527f446561646c696e65206d757374206265203020666f72206e6f6e2d416c6c4f726044820152704e6f7468696e672063616d706169676e7360781b6064820152608490fd5b813581526020918201910162000264565b346200011057602036600319011262000110576004356000548110156200011057620006866020916200069f565b905460405160039290921b1c6001600160a01b03168152f35b906000918254811015620006d6578280527f290decd9548b62a8d60345a988386fc84ba6bc95484008f6362f93160ef3e563019190565b634e487b7160e01b83526032600452602483fd5b90601f8019910116810190811067ffffffffffffffff8211176200046157604052565b81601f82011215620001105780359067ffffffffffffffff821162000461576040519262000746601f8401601f191660200185620006ea565b828452602083830101116200011057816000926020809301838601378301015290565b67ffffffffffffffff8111620004615760051b60200190565b9080601f8301121562000110578135906200079d8262000769565b92620007ad6040519485620006ea565b828452602092838086019160051b830101928084116200011057848301915b848310620007dd5750505050505090565b823567ffffffffffffffff81116200011057869162000802848480948901016200070d565b815201920191620007cc565b919082519283825260005b8481106200083b575050826000602080949584010152601f8019910116010190565b60208183018101518483018201520162000819565b908082519081815260208091019281808460051b8301019501936000915b8483106200087f5750505050505090565b90919293949584806200089f600193601f198682030187528a516200080e565b98019301930191949392906200086e56fe60806040523462000c1457620020a880380390816200001e8162000c19565b91823961018081838101031262000c14576200003a8162000c3f565b91620000496020830162000c3f565b60408301519093906001600160401b03811162000c1457620000719083850190850162000c54565b60608401519093906001600160401b03811162000c1457620000999084830190830162000c54565b90608081015160a08201519060c083015193600485101562000c145760e08401516001600160401b03811162000c1457620000da9088860190860162000cde565b6101008501519098906001600160401b03811162000c1457620001039089870190870162000cde565b610120860151909a90986001600160401b038a1162000c1457808701601f8b890101121562000c145789870151620001456200013f8262000cc6565b62000c19565b9a6020808d848152019260051b828b010101928901831162000c14578801602001905b82821062000c035750505061014086015161016090960151600080546001600160a01b039a8b166001600160a01b0319918216179091556001805493909a169216919091179097558051906001600160401b038211620006835760025490600182811c9216801562000bf8575b6020831014620006625781601f84931162000b97575b50602090601f831160011462000b195760009262000b0d575b50508160011b916000199060031b1c1916176002555b8051906001600160401b038211620006835760035490600182811c9216801562000b02575b6020831014620006625781601f84931162000a90575b50602090601f831160011462000a0157600092620009f5575b50508160011b916000199060031b1c1916176003555b6005556004805461ffff191660ff851617905560038303620009e95742811115620009a4576007555b6002821462000984575b50600114159050620008f6578151815181149081620008ea575b81620008df575b50156200089a5760005b82518110156200088557620002f8818462000d5e565b5162000305828662000d5e565b5162000312838562000d5e565b51604051929091906001600160401b0360a0850190811190851117620006835760a084016040528352602083015260408201526000606082015260405180602081011060018060401b03602083011117620006835760208101604052600081526080820152600c54906801000000000000000082101562000683576001820180600c558210156200086f57600c600052805180517fdf6966c971051c3d54ec59162606531493a51404a002842f56009d7e5cf4a8c792916001600160401b03821162000683576005850284015490600182811c9216801562000864575b6020831014620006625781601f8493116200080a575b50602090601f83116001146200078f5760009262000783575b50508160011b916000199060031b1c191617600584028301555b60208101518051906001600160401b038211620006835760016005860285010154600181811c9116801562000778575b60208210146200066257601f811162000727575b50602090601f8311600114620006a55760809392916000918362000699575b50508160011b916000199060031b1c191617600160058602850101555b6040810151600260058602850101556003600585028401016060820151151560ff80198354169116179055015180519060018060401b038211620006835760046005850284010154600181811c9116801562000678575b60208210146200066257601f811162000611575b50602090601f8311600114620005925791806005926004959460009262000586575b50508160011b916000199060031b1c19161793020101555b60001981146200057057600101620002e2565b634e487b7160e01b600052601160045260246000fd5b01519050388062000545565b9060046005860285010160005260206000209160005b601f1985168110620005f85750926005926001926004969583601f19811610620005de575b505050811b0193020101556200055d565b015160001960f88460031b161c19169055388080620005cd565b91926020600181928685015181550194019201620005a8565b6004600586028501016000526020600020601f840160051c8101602085106200065a575b601f830160051c820181106200064d57505062000523565b6000815560010162000635565b508062000635565b634e487b7160e01b600052602260045260246000fd5b90607f16906200050f565b634e487b7160e01b600052604160045260246000fd5b0151905038806200049b565b9060016005870286010160005260206000209160005b601f19851681106200070e575091839160019360809695601f19811610620006f4575b505050811b0160016005860285010155620004b8565b015160001960f88460031b161c19169055388080620006de565b91926020600181928685015181550194019201620006bb565b6001600587028601016000526020600020601f840160051c81016020851062000770575b601f830160051c82018110620007635750506200047c565b600081556001016200074b565b50806200074b565b90607f169062000468565b0151905038806200041e565b92506005860285016000526020600020906000935b601f1984168510620007ee576001945083601f19811610620007d4575b505050811b016005840283015562000438565b015160001960f88460031b161c19169055388080620007c1565b81810151835560209485019460019093019290910190620007a4565b9091506005860285016000526020600020601f840160051c8101602085106200085c575b90849392915b601f830160051c820181106200084c57505062000405565b6000815585945060010162000834565b50806200082e565b91607f1691620003ef565b634e487b7160e01b600052603260045260246000fd5b505050505b604051611314908162000d748239f35b60405162461bcd60e51b815260206004820152601760248201527f496e76616c6964206d696c6573746f6e652073657475700000000000000000006044820152606490fd5b9050151538620002d8565b845181149150620002d1565b905115918262000979575b50816200096e575b506200088a5760405162461bcd60e51b815260206004820152603160248201527f4e6f6e2d6d696c6573746f6e652063616d706169676e2073686f756c64206e6f604482015270742068617665206d696c6573746f6e657360781b6064820152608490fd5b905051153862000909565b511591503862000901565b60085581600955428242031162000570576001914203600a5538620002b7565b60405162461bcd60e51b815260206004820152601e60248201527f446561646c696e65206d75737420626520696e207468652066757475726500006044820152606490fd5b506000600755620002ad565b0151905038806200026e565b6003600090815293507fc2575a0e9e593c00f959f8c92f12db2869c3395a3b0502d05e2516446f71f85b91905b601f198416851062000a74576001945083601f1981161062000a5a575b505050811b0160035562000284565b015160001960f88460031b161c1916905538808062000a4b565b8181015183556020948501946001909301929091019062000a2e565b60036000529091507fc2575a0e9e593c00f959f8c92f12db2869c3395a3b0502d05e2516446f71f85b601f840160051c81016020851062000afa575b90849392915b601f830160051c8201811062000aea57505062000255565b6000815585945060010162000ad2565b508062000acc565b91607f16916200023f565b01519050388062000204565b6002600090815293506000805160206200208883398151915291905b601f198416851062000b7b576001945083601f1981161062000b61575b505050811b016002556200021a565b015160001960f88460031b161c1916905538808062000b52565b8181015183556020948501946001909301929091019062000b35565b600260005290915060008051602062002088833981519152601f840160051c81016020851062000bf0575b90849392915b601f830160051c8201811062000be0575050620001eb565b6000815585945060010162000bc8565b508062000bc2565b91607f1691620001d5565b815181526020918201910162000168565b600080fd5b6040519190601f01601f191682016001600160401b038111838210176200068357604052565b51906001600160a01b038216820362000c1457565b919080601f8401121562000c145782516001600160401b038111620006835760209062000c8a601f8201601f1916830162000c19565b9281845282828701011162000c145760005b81811062000cb257508260009394955001015290565b858101830151848201840152820162000c9c565b6001600160401b038111620006835760051b60200190565b81601f8201121562000c145780519162000cfc6200013f8462000cc6565b9182938084526020808095019160051b8301019280841162000c1457848301915b84831062000d2e5750505050505090565b82516001600160401b03811162000c1457869162000d528484809489010162000c54565b81520192019162000d1d565b80518210156200086f5760209160051b01019056fe608080604052600436101561001357600080fd5b60003560e01c908162b3704414610f7557508063200d2ed214610f485780632636b94514610f2a57806329dcb0cf14610f0c5780632e41ae7d14610b3457806338af3eed14610b0b5780633f7a86f5146109dc5780634a79d50c1461093657806351cc5cf2146109185780635c6a0246146108f55780637284e4161461081357806374580b7e14610689578063759dadce1461065f578063798f0ef114610570578063895f643014610552578063980e784414610508578063a113074b146104df578063ab231511146104c1578063c75d4c7e1461031b578063cc6cb19a146102dd578063d7557f1814610291578063e89e4ed6146101ef5763ed88c68e1461011b57600080fd5b60003660031901126101ea5760ff60045460081c1660038110156101d4576101439015611123565b34156101a15733600052600d6020526040600020610162348254611165565b905561017034600654611165565b6006556040513481527f264f630d9efa0d07053a31163641d9fcc0adafc9d9e76f1c37c2ce3a558d2c5260203392a2005b60405162461bcd60e51b815260206004820152600b60248201526a139bc8115512081cd95b9d60aa1b6044820152606490fd5b634e487b7160e01b600052602160045260246000fd5b600080fd5b346101ea5760203660031901126101ea57600435600c548110156101ea57610219610265916110d2565b5061028d61022682610fec565b9161023360018201610fec565b600282015491610273610250600460ff6003850154169301610fec565b9260405197889760a0895260a0890190611092565b908782036020890152611092565b926040860152151560608501528382036080850152611092565b0390f35b346101ea5760003660031901126101ea576102b760018060a01b03600054163314611172565b60ff60045460081c1660038110156101d4576102d39015611123565b6102db6111f0565b005b346101ea5760203660031901126101ea576004356001600160a01b038116908190036101ea57600052600d6020526020604060002054604051908152f35b346101ea5760203660031901126101ea5760043560018060a01b0361034581600054163314611172565b60045460ff8160081c169060038210156101d45761036560ff9215611123565b1660048110156101d45760020361048457610385600a5460095490611165565b421061043f57600854821161040557600080808481946103a7824710156111af565b42600a55600154168282156103fc575bf1156103f05760207f4a37b25aab49761ecf63117fe82b98d750917451133cf797507bc9fb5b96044a91604051908152a147156102d357005b6040513d6000823e3d90fd5b506108fc6103b7565b60405162461bcd60e51b81526020600482015260126024820152710416d6f756e742065786365656473206361760741b6044820152606490fd5b60405162461bcd60e51b815260206004820152601a60248201527f5769746864726177616c206e6f742079657420616c6c6f7765640000000000006044820152606490fd5b60405162461bcd60e51b81526020600482015260156024820152744e6f7420726563757272696e672066756e64696e6760581b6044820152606490fd5b346101ea5760003660031901126101ea576020600a54604051908152f35b346101ea5760003660031901126101ea576000546040516001600160a01b039091168152602090f35b346101ea5760003660031901126101ea5761052e60018060a01b03600054163314611172565b60ff60045460081c1660038110156101d45761054a9015611123565b6102db6112a8565b346101ea5760003660031901126101ea576020600954604051908152f35b346101ea5760203660031901126101ea5760043560018060a01b0361059a81600054163314611172565b60045460ff8160081c169060038210156101d4576105ba60ff9215611123565b1660048110156101d45761062357600080808481946105db824710156111af565b6001541682821561061a575bf1156103f05760207f4a37b25aab49761ecf63117fe82b98d750917451133cf797507bc9fb5b96044a91604051908152a1005b506108fc6105e7565b60405162461bcd60e51b81526020600482015260146024820152734e6f7420666c657869626c652066756e64696e6760601b6044820152606490fd5b346101ea5760003660031901126101ea5760ff6004541660405160048210156101d4576020918152f35b346101ea5760003660031901126101ea576000546001600160a01b03906106b39082163314611172565b60045460ff8160081c169060038210156101d4576106d360ff9215611123565b1660048110156101d45760036106e99114611226565b6106f7600754421015611267565b600b5460ff81166107dc57600654600554116107a45747156107745760008080936001829460ff191617600b5560015416479082821561076b575bf1156103f0577f4a37b25aab49761ecf63117fe82b98d750917451133cf797507bc9fb5b96044a602047604051908152a16102db6111f0565b506108fc610732565b60405162461bcd60e51b81526020600482015260086024820152674e6f2066756e647360c01b6044820152606490fd5b60405162461bcd60e51b815260206004820152601060248201526f11dbd85b081b9bdd081c995858da195960821b6044820152606490fd5b60405162461bcd60e51b815260206004820152600f60248201526e105b1c9958591e4818db185a5b5959608a1b6044820152606490fd5b346101ea5760003660031901126101ea57604051600060035461083581610fb2565b808452906001908181169081156108ce5750600114610873575b61028d8461085f81860382610f90565b604051918291602083526020830190611092565b6003600090815292507fc2575a0e9e593c00f959f8c92f12db2869c3395a3b0502d05e2516446f71f85b5b8284106108b657505050810160200161085f8261084f565b8054602085870181019190915290930192810161089e565b60ff191660208087019190915292151560051b8501909201925061085f915083905061084f565b346101ea5760003660031901126101ea57602060ff600b54166040519015158152f35b346101ea5760003660031901126101ea576020600854604051908152f35b346101ea5760003660031901126101ea57604051600060025461095881610fb2565b808452906001908181169081156108ce57506001146109815761028d8461085f81860382610f90565b6002600090815292507f405787fa12a823e0f2b7631cc41b3ba8828b3321ca811111fa75cd3aa3bb5ace5b8284106109c457505050810160200161085f8261084f565b805460208587018101919091529093019281016109ac565b346101ea5760003660031901126101ea5760045460ff8160081c169060038210156101d457610a0d60ff9215611123565b1660048110156101d4576003610a239114611226565b610a31600754421015611267565b6006546005541115610ac65733600052600d60205260406000205415610a895733600052600d6020526000808080604081208181549155818115610a80575b3390f1156103f057471561054a57005b506108fc610a70565b60405162461bcd60e51b8152602060048201526015602482015274139bc8191bdb985d1a5bdb881d1bc81c99599d5b99605a1b6044820152606490fd5b60405162461bcd60e51b815260206004820152601b60248201527f476f616c20726561636865643b2063616e6e6f7420726566756e6400000000006044820152606490fd5b346101ea5760003660031901126101ea576001546040516001600160a01b039091168152602090f35b346101ea5760403660031901126101ea5760243567ffffffffffffffff8082116101ea57366023830112156101ea578160040135818111610e125760405192610b87601f8301601f191660200185610f90565b81845236602483830101116101ea57816000926024602093018387013784010152610bbd60018060a01b03600054163314611172565b60045460ff8160081c169060038210156101d457610bdd60ff9215611123565b1660048110156101d457600103610ed157600c546004351015610e9857610c056004356110d2565b509060ff600383015416610e605747600283015411610e28578251908111610e1257610c346004830154610fb2565b601f8111610dcb575b50806020601f8211600114610d5e57600091610d53575b508160011b916000199060031b1c19161760048201555b600160ff19600383015416176003820155600080808060018060a01b0360015416600286015490828215610d4a575bf1156103f05760027fd22f69c6d4024c0a563aa2532097feffb1ad6071959a74d1621dca2c72f680d89101546040519081526040602082015280610ce5600435946040830190611092565b0390a260016000600c54905b818110610d01575b50506102d357005b60ff6003610d0e836110d2565b5001541615610d3e576000198114610d2857600101610cf1565b634e487b7160e01b600052601160045260246000fd5b50505060008180610cf9565b506108fc610c9a565b905083015184610c54565b91506004830160005260206000206000925b601f1983168410610db3576001935082601f19811610610d9a575b5050811b016004820155610c6b565b85015160001960f88460031b161c191690558480610d8b565b85810151825560209384019360019092019101610d70565b600483016000526020600020601f830160051c810160208410610e0b575b601f830160051c82018110610dff575050610c3d565b60008155600101610de9565b5080610de9565b634e487b7160e01b600052604160045260246000fd5b60405162461bcd60e51b815260206004820152601060248201526f4e6f7420656e6f7567682066756e647360801b6044820152606490fd5b60405162461bcd60e51b815260206004820152601060248201526f105b1c9958591e481c995b19585cd95960821b6044820152606490fd5b60405162461bcd60e51b8152602060048201526011602482015270496e76616c6964206d696c6573746f6e6560781b6044820152606490fd5b60405162461bcd60e51b8152602060048201526013602482015272139bdd081b5a5b195cdd1bdb994b58985cd959606a1b6044820152606490fd5b346101ea5760003660031901126101ea576020600754604051908152f35b346101ea5760003660031901126101ea576020600554604051908152f35b346101ea5760003660031901126101ea5760ff60045460081c1660405160038210156101d4576020918152f35b346101ea5760003660031901126101ea576020906006548152f35b90601f8019910116810190811067ffffffffffffffff821117610e1257604052565b90600182811c92168015610fe2575b6020831014610fcc57565b634e487b7160e01b600052602260045260246000fd5b91607f1691610fc1565b906040519182600082549261100084610fb2565b90818452600194858116908160001461106f575060011461102c575b505061102a92500383610f90565b565b9093915060005260209081600020936000915b81831061105757505061102a9350820101388061101c565b8554888401850152948501948794509183019161103f565b91505061102a94506020925060ff191682840152151560051b820101388061101c565b919082519283825260005b8481106110be575050826000602080949584010152601f8019910116010190565b60208183018101518483018201520161109d565b600c5481101561110d57600590600c600052027fdf6966c971051c3d54ec59162606531493a51404a002842f56009d7e5cf4a8c70190600090565b634e487b7160e01b600052603260045260246000fd5b1561112a57565b60405162461bcd60e51b815260206004820152601360248201527243616d706169676e206e6f742061637469766560681b6044820152606490fd5b91908201809211610d2857565b1561117957565b60405162461bcd60e51b815260206004820152600e60248201526d139bdd08185d5d1a1bdc9a5e995960921b6044820152606490fd5b156111b657565b60405162461bcd60e51b8152602060048201526012602482015271496e73756666696369656e742066756e647360701b6044820152606490fd5b61010061ff001960045416176004557f47768825bbd1c23d8787fdaa8500ebadc117722c311c5ea7d658a5bb66135bd7600080a1565b1561122d57565b60405162461bcd60e51b81526020600482015260126024820152714e6f7420616c6c2d6f722d6e6f7468696e6760701b6044820152606490fd5b1561126e57565b60405162461bcd60e51b815260206004820152601260248201527110d85b5c185a59db881b9bdd08195b99195960721b6044820152606490fd5b61020061ff001960045416176004557f123d4f203b2b83bfe9f45903402bb88193cc56a43371d97ab5a51bd1817d8586600080a156fea2646970667358221220952de3ccf2ef02391a48d4de9eb75d1595c6e51773ccd054e0ecbb5a45ed393664736f6c63430008130033405787fa12a823e0f2b7631cc41b3ba8828b3321ca811111fa75cd3aa3bb5acea2646970667358221220332c8b4b6911f50633f6df91d3c79f4340bf151e2cf0515c7a37d4404fd9f80164736f6c63430008130033","opcodes":"PUSH1 0x80 DUP1 PUSH1 0x40 MSTORE CALLVALUE PUSH2 0x16 JUMPI PUSH2 0x298E SWAP1 DUP2 PUSH2 0x1C DUP3 CODECOPY RETURN JUMPDEST PUSH1 0x0 DUP1 REVERT INVALID PUSH1 0x80 PUSH1 0x40 MSTORE PUSH1 0x4 CALLDATASIZE LT ISZERO PUSH3 0x13 JUMPI PUSH1 0x0 DUP1 REVERT JUMPDEST PUSH1 0x0 CALLDATALOAD PUSH1 0xE0 SHR DUP1 PUSH4 0x141961BC EQ PUSH3 0x658 JUMPI DUP1 PUSH4 0x2203F43C EQ PUSH3 0x115 JUMPI PUSH4 0xA6B03633 EQ PUSH3 0x41 JUMPI PUSH1 0x0 DUP1 REVERT JUMPDEST CALLVALUE PUSH3 0x110 JUMPI PUSH1 0x0 CALLDATASIZE PUSH1 0x3 NOT ADD SLT PUSH3 0x110 JUMPI PUSH1 0x40 MLOAD DUP1 PUSH1 0x0 SLOAD DUP1 DUP4 MSTORE PUSH1 0x20 DUP1 SWAP4 ADD DUP1 SWAP2 PUSH1 0x0 DUP1 MSTORE PUSH32 0x290DECD9548B62A8D60345A988386FC84BA6BC95484008F6362F93160EF3E563 SWAP1 PUSH1 0x0 JUMPDEST DUP7 DUP3 DUP3 LT PUSH3 0xF2 JUMPI DUP7 DUP7 PUSH3 0xA7 DUP3 DUP9 SUB DUP4 PUSH3 0x6EA JUMP JUMPDEST PUSH1 0x40 MLOAD SWAP3 DUP4 SWAP3 DUP2 DUP5 ADD SWAP1 DUP3 DUP6 MSTORE MLOAD DUP1 SWAP2 MSTORE PUSH1 0x40 DUP5 ADD SWAP3 SWAP2 PUSH1 0x0 JUMPDEST DUP3 DUP2 LT PUSH3 0xD1 JUMPI POP POP POP POP SUB SWAP1 RETURN JUMPDEST DUP4 MLOAD PUSH1 0x1 PUSH1 0x1 PUSH1 0xA0 SHL SUB AND DUP6 MSTORE DUP7 SWAP6 POP SWAP4 DUP2 ADD SWAP4 SWAP3 DUP2 ADD SWAP3 PUSH1 0x1 ADD PUSH3 0xC1 JUMP JUMPDEST DUP4 SLOAD PUSH1 0x1 PUSH1 0x1 PUSH1 0xA0 SHL SUB AND DUP6 MSTORE SWAP1 SWAP4 ADD SWAP3 PUSH1 0x1 SWAP3 DUP4 ADD SWAP3 ADD PUSH3 0x8E JUMP JUMPDEST PUSH1 0x0 DUP1 REVERT JUMPDEST CALLVALUE PUSH3 0x110 JUMPI PUSH2 0x180 CALLDATASIZE PUSH1 0x3 NOT ADD SLT PUSH3 0x110 JUMPI PUSH1 0x4 CALLDATALOAD PUSH1 0x1 PUSH1 0x1 PUSH1 0xA0 SHL SUB DUP2 AND DUP2 SUB PUSH3 0x110 JUMPI PUSH1 0x24 CALLDATALOAD PUSH1 0x1 PUSH1 0x1 PUSH1 0xA0 SHL SUB DUP2 AND DUP2 SUB PUSH3 0x110 JUMPI PUSH1 0x44 CALLDATALOAD PUSH8 0xFFFFFFFFFFFFFFFF DUP2 GT PUSH3 0x110 JUMPI PUSH3 0x174 SWAP1 CALLDATASIZE SWAP1 PUSH1 0x4 ADD PUSH3 0x70D JUMP JUMPDEST PUSH1 0x64 CALLDATALOAD PUSH8 0xFFFFFFFFFFFFFFFF DUP2 GT PUSH3 0x110 JUMPI PUSH3 0x197 SWAP1 CALLDATASIZE SWAP1 PUSH1 0x4 ADD PUSH3 0x70D JUMP JUMPDEST SWAP1 PUSH1 0x4 PUSH1 0xC4 CALLDATALOAD LT ISZERO PUSH3 0x110 JUMPI PUSH1 0xE4 CALLDATALOAD PUSH8 0xFFFFFFFFFFFFFFFF DUP2 GT PUSH3 0x110 JUMPI PUSH3 0x1C7 SWAP1 CALLDATASIZE SWAP1 PUSH1 0x4 ADD PUSH3 0x782 JUMP JUMPDEST SWAP1 PUSH2 0x104 CALLDATALOAD PUSH8 0xFFFFFFFFFFFFFFFF DUP2 GT PUSH3 0x110 JUMPI PUSH3 0x1EC SWAP1 CALLDATASIZE SWAP1 PUSH1 0x4 ADD PUSH3 0x782 JUMP JUMPDEST SWAP2 PUSH8 0xFFFFFFFFFFFFFFFF PUSH2 0x124 CALLDATALOAD GT PUSH3 0x110 JUMPI CALLDATASIZE PUSH1 0x23 PUSH2 0x124 CALLDATALOAD ADD SLT ISZERO PUSH3 0x110 JUMPI PUSH3 0x221 PUSH2 0x124 CALLDATALOAD PUSH1 0x4 ADD CALLDATALOAD PUSH3 0x769 JUMP JUMPDEST SWAP2 PUSH3 0x231 PUSH1 0x40 MLOAD SWAP4 DUP5 PUSH3 0x6EA JUMP JUMPDEST PUSH2 0x124 CALLDATALOAD PUSH1 0x4 ADD CALLDATALOAD DUP4 MSTORE PUSH1 0x20 DUP4 ADD SWAP4 DUP5 CALLDATASIZE PUSH1 0x24 PUSH2 0x124 CALLDATALOAD PUSH1 0x4 ADD CALLDATALOAD PUSH1 0x5 SHL PUSH2 0x124 CALLDATALOAD ADD ADD GT PUSH3 0x110 JUMPI PUSH1 0x24 PUSH2 0x124 CALLDATALOAD ADD SWAP1 JUMPDEST PUSH1 0x24 PUSH2 0x124 CALLDATALOAD PUSH1 0x4 ADD CALLDATALOAD PUSH1 0x5 SHL PUSH2 0x124 CALLDATALOAD ADD ADD DUP3 LT PUSH3 0x647 JUMPI POP POP PUSH1 0xC4 CALLDATALOAD PUSH1 0x3 SUB PUSH3 0x5DF JUMPI TIMESTAMP PUSH1 0xA4 CALLDATALOAD GT ISZERO PUSH3 0x582 JUMPI JUMPDEST PUSH1 0xC4 CALLDATALOAD PUSH1 0x1 SUB PUSH3 0x4F9 JUMPI DUP3 MLOAD DUP5 MLOAD DUP2 EQ SWAP1 DUP2 PUSH3 0x4ED JUMPI JUMPDEST DUP2 PUSH3 0x4E2 JUMPI JUMPDEST POP ISZERO PUSH3 0x49D JUMPI JUMPDEST PUSH1 0x40 MLOAD SWAP6 DUP7 PUSH2 0x20A8 DUP2 ADD LT PUSH8 0xFFFFFFFFFFFFFFFF PUSH2 0x20A8 DUP10 ADD GT OR PUSH3 0x461 JUMPI SWAP1 PUSH3 0x376 DUP8 SWAP7 SWAP6 SWAP5 PUSH3 0x346 PUSH3 0x38E SWAP5 PUSH3 0x32F PUSH1 0x20 SWAP8 DUP15 PUSH2 0x20A8 DUP14 PUSH3 0x8B1 SWAP1 CODECOPY PUSH1 0x1 PUSH1 0x1 PUSH1 0xA0 SHL SUB SWAP1 DUP2 AND PUSH2 0x20A8 DUP15 ADD SWAP1 DUP2 MSTORE SWAP1 DUP16 AND DUP11 DUP3 ADD MSTORE PUSH2 0x180 PUSH1 0x40 DUP3 ADD DUP2 SWAP1 MSTORE ADD SWAP1 PUSH3 0x80E JUMP JUMPDEST SWAP1 PUSH2 0x20A8 DUP12 ADD DUP3 SUB PUSH1 0x60 PUSH2 0x20A8 DUP14 ADD ADD MSTORE PUSH3 0x80E JUMP JUMPDEST PUSH1 0x84 CALLDATALOAD PUSH2 0x20A8 DUP11 ADD PUSH1 0x80 DUP2 ADD SWAP2 SWAP1 SWAP2 MSTORE PUSH1 0xA4 CALLDATALOAD PUSH1 0xA0 DUP3 ADD MSTORE PUSH1 0xC4 CALLDATALOAD PUSH1 0xC0 DUP3 ADD MSTORE DUP1 DUP3 SUB PUSH1 0xE0 SWAP1 SWAP2 ADD MSTORE SWAP1 PUSH3 0x850 JUMP JUMPDEST SWAP1 PUSH2 0x20A8 DUP8 ADD DUP3 SUB PUSH2 0x100 PUSH2 0x20A8 DUP10 ADD ADD MSTORE PUSH3 0x850 JUMP JUMPDEST SWAP2 PUSH2 0x20A8 DUP6 ADD DUP4 SUB PUSH2 0x120 PUSH2 0x20A8 DUP8 ADD ADD MSTORE MLOAD SWAP2 DUP3 DUP2 MSTORE ADD SWAP2 SWAP1 PUSH1 0x0 JUMPDEST DUP2 DUP2 LT PUSH3 0x483 JUMPI POP POP POP PUSH2 0x144 CALLDATALOAD PUSH2 0x140 PUSH2 0x20A8 DUP5 ADD ADD MSTORE PUSH2 0x164 CALLDATALOAD PUSH2 0x160 PUSH2 0x20A8 DUP5 ADD ADD MSTORE SUB SWAP1 PUSH1 0x0 CREATE DUP1 ISZERO PUSH3 0x477 JUMPI PUSH1 0x1 DUP1 PUSH1 0xA0 SHL SUB AND PUSH1 0x0 SLOAD SWAP3 PUSH9 0x10000000000000000 DUP5 LT ISZERO PUSH3 0x461 JUMPI PUSH3 0x410 DUP5 PUSH1 0x1 PUSH1 0x20 SWAP7 ADD PUSH1 0x0 SSTORE PUSH3 0x69F JUMP JUMPDEST DUP2 SLOAD PUSH1 0x1 PUSH1 0x1 PUSH1 0xA0 SHL SUB PUSH1 0x3 SWAP3 SWAP1 SWAP3 SHL DUP3 DUP2 SHL NOT SWAP1 SWAP2 AND SWAP1 DUP6 SWAP1 SHL OR SWAP1 SWAP2 SSTORE PUSH1 0x40 MLOAD SWAP4 DUP2 AND SWAP2 AND DUP3 PUSH32 0x1260F646519B6441128EDDA4528AFCFBCF3E46959BE8F7C3D85D50F62EDA7C68 PUSH1 0x0 DUP1 LOG4 DUP2 MSTORE RETURN JUMPDEST PUSH4 0x4E487B71 PUSH1 0xE0 SHL PUSH1 0x0 MSTORE PUSH1 0x41 PUSH1 0x4 MSTORE PUSH1 0x24 PUSH1 0x0 REVERT JUMPDEST PUSH1 0x40 MLOAD RETURNDATASIZE PUSH1 0x0 DUP3 RETURNDATACOPY RETURNDATASIZE SWAP1 REVERT JUMPDEST DUP3 MLOAD DUP5 MSTORE DUP6 SWAP5 POP PUSH1 0x20 SWAP4 DUP5 ADD SWAP4 SWAP1 SWAP3 ADD SWAP2 PUSH1 0x1 ADD PUSH3 0x3AB JUMP JUMPDEST PUSH1 0x40 MLOAD PUSH3 0x461BCD PUSH1 0xE5 SHL DUP2 MSTORE PUSH1 0x20 PUSH1 0x4 DUP3 ADD MSTORE PUSH1 0x17 PUSH1 0x24 DUP3 ADD MSTORE PUSH32 0x496E76616C6964206D696C6573746F6E65207365747570000000000000000000 PUSH1 0x44 DUP3 ADD MSTORE PUSH1 0x64 SWAP1 REVERT JUMPDEST SWAP1 POP ISZERO ISZERO DUP10 PUSH3 0x2B7 JUMP JUMPDEST DUP3 MLOAD DUP2 EQ SWAP2 POP PUSH3 0x2B0 JUMP JUMPDEST DUP3 MLOAD ISZERO DUP1 PUSH3 0x578 JUMPI JUMPDEST DUP1 PUSH3 0x56E JUMPI JUMPDEST PUSH3 0x2BF JUMPI PUSH1 0x40 MLOAD PUSH3 0x461BCD PUSH1 0xE5 SHL DUP2 MSTORE PUSH1 0x20 PUSH1 0x4 DUP3 ADD MSTORE PUSH1 0x31 PUSH1 0x24 DUP3 ADD MSTORE PUSH32 0x4E6F6E2D6D696C6573746F6E652063616D706169676E2073686F756C64206E6F PUSH1 0x44 DUP3 ADD MSTORE PUSH17 0x742068617665206D696C6573746F6E6573 PUSH1 0x78 SHL PUSH1 0x64 DUP3 ADD MSTORE PUSH1 0x84 SWAP1 REVERT JUMPDEST POP DUP4 MLOAD ISZERO PUSH3 0x50A JUMP JUMPDEST POP DUP1 MLOAD ISZERO PUSH3 0x503 JUMP JUMPDEST PUSH1 0x40 MLOAD PUSH3 0x461BCD PUSH1 0xE5 SHL DUP2 MSTORE PUSH1 0x20 PUSH1 0x4 DUP3 ADD MSTORE PUSH1 0x2F PUSH1 0x24 DUP3 ADD MSTORE PUSH32 0x446561646C696E65206D75737420626520696E20746865206675747572652066 PUSH1 0x44 DUP3 ADD MSTORE PUSH15 0x6F7220416C6C4F724E6F7468696E67 PUSH1 0x88 SHL PUSH1 0x64 DUP3 ADD MSTORE PUSH1 0x84 SWAP1 REVERT JUMPDEST PUSH1 0xA4 CALLDATALOAD ISZERO PUSH3 0x297 JUMPI PUSH1 0x40 MLOAD PUSH3 0x461BCD PUSH1 0xE5 SHL DUP2 MSTORE PUSH1 0x20 PUSH1 0x4 DUP3 ADD MSTORE PUSH1 0x31 PUSH1 0x24 DUP3 ADD MSTORE PUSH32 0x446561646C696E65206D757374206265203020666F72206E6F6E2D416C6C4F72 PUSH1 0x44 DUP3 ADD MSTORE PUSH17 0x4E6F7468696E672063616D706169676E73 PUSH1 0x78 SHL PUSH1 0x64 DUP3 ADD MSTORE PUSH1 0x84 SWAP1 REVERT JUMPDEST DUP2 CALLDATALOAD DUP2 MSTORE PUSH1 0x20 SWAP2 DUP3 ADD SWAP2 ADD PUSH3 0x264 JUMP JUMPDEST CALLVALUE PUSH3 0x110 JUMPI PUSH1 0x20 CALLDATASIZE PUSH1 0x3 NOT ADD SLT PUSH3 0x110 JUMPI PUSH1 0x4 CALLDATALOAD PUSH1 0x0 SLOAD DUP2 LT ISZERO PUSH3 0x110 JUMPI PUSH3 0x686 PUSH1 0x20 SWAP2 PUSH3 0x69F JUMP JUMPDEST SWAP1 SLOAD PUSH1 0x40 MLOAD PUSH1 0x3 SWAP3 SWAP1 SWAP3 SHL SHR PUSH1 0x1 PUSH1 0x1 PUSH1 0xA0 SHL SUB AND DUP2 MSTORE RETURN JUMPDEST SWAP1 PUSH1 0x0 SWAP2 DUP3 SLOAD DUP2 LT ISZERO PUSH3 0x6D6 JUMPI DUP3 DUP1 MSTORE PUSH32 0x290DECD9548B62A8D60345A988386FC84BA6BC95484008F6362F93160EF3E563 ADD SWAP2 SWAP1 JUMP JUMPDEST PUSH4 0x4E487B71 PUSH1 0xE0 SHL DUP4 MSTORE PUSH1 0x32 PUSH1 0x4 MSTORE PUSH1 0x24 DUP4 REVERT JUMPDEST SWAP1 PUSH1 0x1F DUP1 NOT SWAP2 ADD AND DUP2 ADD SWAP1 DUP2 LT PUSH8 0xFFFFFFFFFFFFFFFF DUP3 GT OR PUSH3 0x461 JUMPI PUSH1 0x40 MSTORE JUMP JUMPDEST DUP2 PUSH1 0x1F DUP3 ADD SLT ISZERO PUSH3 0x110 JUMPI DUP1 CALLDATALOAD SWAP1 PUSH8 0xFFFFFFFFFFFFFFFF DUP3 GT PUSH3 0x461 JUMPI PUSH1 0x40 MLOAD SWAP3 PUSH3 0x746 PUSH1 0x1F DUP5 ADD PUSH1 0x1F NOT AND PUSH1 0x20 ADD DUP6 PUSH3 0x6EA JUMP JUMPDEST DUP3 DUP5 MSTORE PUSH1 0x20 DUP4 DUP4 ADD ADD GT PUSH3 0x110 JUMPI DUP2 PUSH1 0x0 SWAP3 PUSH1 0x20 DUP1 SWAP4 ADD DUP4 DUP7 ADD CALLDATACOPY DUP4 ADD ADD MSTORE SWAP1 JUMP JUMPDEST PUSH8 0xFFFFFFFFFFFFFFFF DUP2 GT PUSH3 0x461 JUMPI PUSH1 0x5 SHL PUSH1 0x20 ADD SWAP1 JUMP JUMPDEST SWAP1 DUP1 PUSH1 0x1F DUP4 ADD SLT ISZERO PUSH3 0x110 JUMPI DUP2 CALLDATALOAD SWAP1 PUSH3 0x79D DUP3 PUSH3 0x769 JUMP JUMPDEST SWAP3 PUSH3 0x7AD PUSH1 0x40 MLOAD SWAP5 DUP6 PUSH3 0x6EA JUMP JUMPDEST DUP3 DUP5 MSTORE PUSH1 0x20 SWAP3 DUP4 DUP1 DUP7 ADD SWAP2 PUSH1 0x5 SHL DUP4 ADD ADD SWAP3 DUP1 DUP5 GT PUSH3 0x110 JUMPI DUP5 DUP4 ADD SWAP2 JUMPDEST DUP5 DUP4 LT PUSH3 0x7DD JUMPI POP POP POP POP POP POP SWAP1 JUMP JUMPDEST DUP3 CALLDATALOAD PUSH8 0xFFFFFFFFFFFFFFFF DUP2 GT PUSH3 0x110 JUMPI DUP7 SWAP2 PUSH3 0x802 DUP5 DUP5 DUP1 SWAP5 DUP10 ADD ADD PUSH3 0x70D JUMP JUMPDEST DUP2 MSTORE ADD SWAP3 ADD SWAP2 PUSH3 0x7CC JUMP JUMPDEST SWAP2 SWAP1 DUP3 MLOAD SWAP3 DUP4 DUP3 MSTORE PUSH1 0x0 JUMPDEST DUP5 DUP2 LT PUSH3 0x83B JUMPI POP POP DUP3 PUSH1 0x0 PUSH1 0x20 DUP1 SWAP5 SWAP6 DUP5 ADD ADD MSTORE PUSH1 0x1F DUP1 NOT SWAP2 ADD AND ADD ADD SWAP1 JUMP JUMPDEST PUSH1 0x20 DUP2 DUP4 ADD DUP2 ADD MLOAD DUP5 DUP4 ADD DUP3 ADD MSTORE ADD PUSH3 0x819 JUMP JUMPDEST SWAP1 DUP1 DUP3 MLOAD SWAP1 DUP2 DUP2 MSTORE PUSH1 0x20 DUP1 SWAP2 ADD SWAP3 DUP2 DUP1 DUP5 PUSH1 0x5 SHL DUP4 ADD ADD SWAP6 ADD SWAP4 PUSH1 0x0 SWAP2 JUMPDEST DUP5 DUP4 LT PUSH3 0x87F JUMPI POP POP POP POP POP POP SWAP1 JUMP JUMPDEST SWAP1 SWAP2 SWAP3 SWAP4 SWAP5 SWAP6 DUP5 DUP1 PUSH3 0x89F PUSH1 0x1 SWAP4 PUSH1 0x1F NOT DUP7 DUP3 SUB ADD DUP8 MSTORE DUP11 MLOAD PUSH3 0x80E JUMP JUMPDEST SWAP9 ADD SWAP4 ADD SWAP4 ADD SWAP2 SWAP5 SWAP4 SWAP3 SWAP1 PUSH3 0x86E JUMP INVALID PUSH1 0x80 PUSH1 0x40 MSTORE CALLVALUE PUSH3 0xC14 JUMPI PUSH3 0x20A8 DUP1 CODESIZE SUB SWAP1 DUP2 PUSH3 0x1E DUP2 PUSH3 0xC19 JUMP JUMPDEST SWAP2 DUP3 CODECOPY PUSH2 0x180 DUP2 DUP4 DUP2 ADD SUB SLT PUSH3 0xC14 JUMPI PUSH3 0x3A DUP2 PUSH3 0xC3F JUMP JUMPDEST SWAP2 PUSH3 0x49 PUSH1 0x20 DUP4 ADD PUSH3 0xC3F JUMP JUMPDEST PUSH1 0x40 DUP4 ADD MLOAD SWAP1 SWAP4 SWAP1 PUSH1 0x1 PUSH1 0x1 PUSH1 0x40 SHL SUB DUP2 GT PUSH3 0xC14 JUMPI PUSH3 0x71 SWAP1 DUP4 DUP6 ADD SWAP1 DUP6 ADD PUSH3 0xC54 JUMP JUMPDEST PUSH1 0x60 DUP5 ADD MLOAD SWAP1 SWAP4 SWAP1 PUSH1 0x1 PUSH1 0x1 PUSH1 0x40 SHL SUB DUP2 GT PUSH3 0xC14 JUMPI PUSH3 0x99 SWAP1 DUP5 DUP4 ADD SWAP1 DUP4 ADD PUSH3 0xC54 JUMP JUMPDEST SWAP1 PUSH1 0x80 DUP2 ADD MLOAD PUSH1 0xA0 DUP3 ADD MLOAD SWAP1 PUSH1 0xC0 DUP4 ADD MLOAD SWAP4 PUSH1 0x4 DUP6 LT ISZERO PUSH3 0xC14 JUMPI PUSH1 0xE0 DUP5 ADD MLOAD PUSH1 0x1 PUSH1 0x1 PUSH1 0x40 SHL SUB DUP2 GT PUSH3 0xC14 JUMPI PUSH3 0xDA SWAP1 DUP9 DUP7 ADD SWAP1 DUP7 ADD PUSH3 0xCDE JUMP JUMPDEST PUSH2 0x100 DUP6 ADD MLOAD SWAP1 SWAP9 SWAP1 PUSH1 0x1 PUSH1 0x1 PUSH1 0x40 SHL SUB DUP2 GT PUSH3 0xC14 JUMPI PUSH3 0x103 SWAP1 DUP10 DUP8 ADD SWAP1 DUP8 ADD PUSH3 0xCDE JUMP JUMPDEST PUSH2 0x120 DUP7 ADD MLOAD SWAP1 SWAP11 SWAP1 SWAP9 PUSH1 0x1 PUSH1 0x1 PUSH1 0x40 SHL SUB DUP11 GT PUSH3 0xC14 JUMPI DUP1 DUP8 ADD PUSH1 0x1F DUP12 DUP10 ADD ADD SLT ISZERO PUSH3 0xC14 JUMPI DUP10 DUP8 ADD MLOAD PUSH3 0x145 PUSH3 0x13F DUP3 PUSH3 0xCC6 JUMP JUMPDEST PUSH3 0xC19 JUMP JUMPDEST SWAP11 PUSH1 0x20 DUP1 DUP14 DUP5 DUP2 MSTORE ADD SWAP3 PUSH1 0x5 SHL DUP3 DUP12 ADD ADD ADD SWAP3 DUP10 ADD DUP4 GT PUSH3 0xC14 JUMPI DUP9 ADD PUSH1 0x20 ADD SWAP1 JUMPDEST DUP3 DUP3 LT PUSH3 0xC03 JUMPI POP POP POP PUSH2 0x140 DUP7 ADD MLOAD PUSH2 0x160 SWAP1 SWAP7 ADD MLOAD PUSH1 0x0 DUP1 SLOAD PUSH1 0x1 PUSH1 0x1 PUSH1 0xA0 SHL SUB SWAP11 DUP12 AND PUSH1 0x1 PUSH1 0x1 PUSH1 0xA0 SHL SUB NOT SWAP2 DUP3 AND OR SWAP1 SWAP2 SSTORE PUSH1 0x1 DUP1 SLOAD SWAP4 SWAP1 SWAP11 AND SWAP3 AND SWAP2 SWAP1 SWAP2 OR SWAP1 SWAP8 SSTORE DUP1 MLOAD SWAP1 PUSH1 0x1 PUSH1 0x1 PUSH1 0x40 SHL SUB DUP3 GT PUSH3 0x683 JUMPI PUSH1 0x2 SLOAD SWAP1 PUSH1 0x1 DUP3 DUP2 SHR SWAP3 AND DUP1 ISZERO PUSH3 0xBF8 JUMPI JUMPDEST PUSH1 0x20 DUP4 LT EQ PUSH3 0x662 JUMPI DUP2 PUSH1 0x1F DUP5 SWAP4 GT PUSH3 0xB97 JUMPI JUMPDEST POP PUSH1 0x20 SWAP1 PUSH1 0x1F DUP4 GT PUSH1 0x1 EQ PUSH3 0xB19 JUMPI PUSH1 0x0 SWAP3 PUSH3 0xB0D JUMPI JUMPDEST POP POP DUP2 PUSH1 0x1 SHL SWAP2 PUSH1 0x0 NOT SWAP1 PUSH1 0x3 SHL SHR NOT AND OR PUSH1 0x2 SSTORE JUMPDEST DUP1 MLOAD SWAP1 PUSH1 0x1 PUSH1 0x1 PUSH1 0x40 SHL SUB DUP3 GT PUSH3 0x683 JUMPI PUSH1 0x3 SLOAD SWAP1 PUSH1 0x1 DUP3 DUP2 SHR SWAP3 AND DUP1 ISZERO PUSH3 0xB02 JUMPI JUMPDEST PUSH1 0x20 DUP4 LT EQ PUSH3 0x662 JUMPI DUP2 PUSH1 0x1F DUP5 SWAP4 GT PUSH3 0xA90 JUMPI JUMPDEST POP PUSH1 0x20 SWAP1 PUSH1 0x1F DUP4 GT PUSH1 0x1 EQ PUSH3 0xA01 JUMPI PUSH1 0x0 SWAP3 PUSH3 0x9F5 JUMPI JUMPDEST POP POP DUP2 PUSH1 0x1 SHL SWAP2 PUSH1 0x0 NOT SWAP1 PUSH1 0x3 SHL SHR NOT AND OR PUSH1 0x3 SSTORE JUMPDEST PUSH1 0x5 SSTORE PUSH1 0x4 DUP1 SLOAD PUSH2 0xFFFF NOT AND PUSH1 0xFF DUP6 AND OR SWAP1 SSTORE PUSH1 0x3 DUP4 SUB PUSH3 0x9E9 JUMPI TIMESTAMP DUP2 GT ISZERO PUSH3 0x9A4 JUMPI PUSH1 0x7 SSTORE JUMPDEST PUSH1 0x2 DUP3 EQ PUSH3 0x984 JUMPI JUMPDEST POP PUSH1 0x1 EQ ISZERO SWAP1 POP PUSH3 0x8F6 JUMPI DUP2 MLOAD DUP2 MLOAD DUP2 EQ SWAP1 DUP2 PUSH3 0x8EA JUMPI JUMPDEST DUP2 PUSH3 0x8DF JUMPI JUMPDEST POP ISZERO PUSH3 0x89A JUMPI PUSH1 0x0 JUMPDEST DUP3 MLOAD DUP2 LT ISZERO PUSH3 0x885 JUMPI PUSH3 0x2F8 DUP2 DUP5 PUSH3 0xD5E JUMP JUMPDEST MLOAD PUSH3 0x305 DUP3 DUP7 PUSH3 0xD5E JUMP JUMPDEST MLOAD PUSH3 0x312 DUP4 DUP6 PUSH3 0xD5E JUMP JUMPDEST MLOAD PUSH1 0x40 MLOAD SWAP3 SWAP1 SWAP2 SWAP1 PUSH1 0x1 PUSH1 0x1 PUSH1 0x40 SHL SUB PUSH1 0xA0 DUP6 ADD SWAP1 DUP2 GT SWAP1 DUP6 GT OR PUSH3 0x683 JUMPI PUSH1 0xA0 DUP5 ADD PUSH1 0x40 MSTORE DUP4 MSTORE PUSH1 0x20 DUP4 ADD MSTORE PUSH1 0x40 DUP3 ADD MSTORE PUSH1 0x0 PUSH1 0x60 DUP3 ADD MSTORE PUSH1 0x40 MLOAD DUP1 PUSH1 0x20 DUP2 ADD LT PUSH1 0x1 DUP1 PUSH1 0x40 SHL SUB PUSH1 0x20 DUP4 ADD GT OR PUSH3 0x683 JUMPI PUSH1 0x20 DUP2 ADD PUSH1 0x40 MSTORE PUSH1 0x0 DUP2 MSTORE PUSH1 0x80 DUP3 ADD MSTORE PUSH1 0xC SLOAD SWAP1 PUSH9 0x10000000000000000 DUP3 LT ISZERO PUSH3 0x683 JUMPI PUSH1 0x1 DUP3 ADD DUP1 PUSH1 0xC SSTORE DUP3 LT ISZERO PUSH3 0x86F JUMPI PUSH1 0xC PUSH1 0x0 MSTORE DUP1 MLOAD DUP1 MLOAD PUSH32 0xDF6966C971051C3D54EC59162606531493A51404A002842F56009D7E5CF4A8C7 SWAP3 SWAP2 PUSH1 0x1 PUSH1 0x1 PUSH1 0x40 SHL SUB DUP3 GT PUSH3 0x683 JUMPI PUSH1 0x5 DUP6 MUL DUP5 ADD SLOAD SWAP1 PUSH1 0x1 DUP3 DUP2 SHR SWAP3 AND DUP1 ISZERO PUSH3 0x864 JUMPI JUMPDEST PUSH1 0x20 DUP4 LT EQ PUSH3 0x662 JUMPI DUP2 PUSH1 0x1F DUP5 SWAP4 GT PUSH3 0x80A JUMPI JUMPDEST POP PUSH1 0x20 SWAP1 PUSH1 0x1F DUP4 GT PUSH1 0x1 EQ PUSH3 0x78F JUMPI PUSH1 0x0 SWAP3 PUSH3 0x783 JUMPI JUMPDEST POP POP DUP2 PUSH1 0x1 SHL SWAP2 PUSH1 0x0 NOT SWAP1 PUSH1 0x3 SHL SHR NOT AND OR PUSH1 0x5 DUP5 MUL DUP4 ADD SSTORE JUMPDEST PUSH1 0x20 DUP2 ADD MLOAD DUP1 MLOAD SWAP1 PUSH1 0x1 PUSH1 0x1 PUSH1 0x40 SHL SUB DUP3 GT PUSH3 0x683 JUMPI PUSH1 0x1 PUSH1 0x5 DUP7 MUL DUP6 ADD ADD SLOAD PUSH1 0x1 DUP2 DUP2 SHR SWAP2 AND DUP1 ISZERO PUSH3 0x778 JUMPI JUMPDEST PUSH1 0x20 DUP3 LT EQ PUSH3 0x662 JUMPI PUSH1 0x1F DUP2 GT PUSH3 0x727 JUMPI JUMPDEST POP PUSH1 0x20 SWAP1 PUSH1 0x1F DUP4 GT PUSH1 0x1 EQ PUSH3 0x6A5 JUMPI PUSH1 0x80 SWAP4 SWAP3 SWAP2 PUSH1 0x0 SWAP2 DUP4 PUSH3 0x699 JUMPI JUMPDEST POP POP DUP2 PUSH1 0x1 SHL SWAP2 PUSH1 0x0 NOT SWAP1 PUSH1 0x3 SHL SHR NOT AND OR PUSH1 0x1 PUSH1 0x5 DUP7 MUL DUP6 ADD ADD SSTORE JUMPDEST PUSH1 0x40 DUP2 ADD MLOAD PUSH1 0x2 PUSH1 0x5 DUP7 MUL DUP6 ADD ADD SSTORE PUSH1 0x3 PUSH1 0x5 DUP6 MUL DUP5 ADD ADD PUSH1 0x60 DUP3 ADD MLOAD ISZERO ISZERO PUSH1 0xFF DUP1 NOT DUP4 SLOAD AND SWAP2 AND OR SWAP1 SSTORE ADD MLOAD DUP1 MLOAD SWAP1 PUSH1 0x1 DUP1 PUSH1 0x40 SHL SUB DUP3 GT PUSH3 0x683 JUMPI PUSH1 0x4 PUSH1 0x5 DUP6 MUL DUP5 ADD ADD SLOAD PUSH1 0x1 DUP2 DUP2 SHR SWAP2 AND DUP1 ISZERO PUSH3 0x678 JUMPI JUMPDEST PUSH1 0x20 DUP3 LT EQ PUSH3 0x662 JUMPI PUSH1 0x1F DUP2 GT PUSH3 0x611 JUMPI JUMPDEST POP PUSH1 0x20 SWAP1 PUSH1 0x1F DUP4 GT PUSH1 0x1 EQ PUSH3 0x592 JUMPI SWAP2 DUP1 PUSH1 0x5 SWAP3 PUSH1 0x4 SWAP6 SWAP5 PUSH1 0x0 SWAP3 PUSH3 0x586 JUMPI JUMPDEST POP POP DUP2 PUSH1 0x1 SHL SWAP2 PUSH1 0x0 NOT SWAP1 PUSH1 0x3 SHL SHR NOT AND OR SWAP4 MUL ADD ADD SSTORE JUMPDEST PUSH1 0x0 NOT DUP2 EQ PUSH3 0x570 JUMPI PUSH1 0x1 ADD PUSH3 0x2E2 JUMP JUMPDEST PUSH4 0x4E487B71 PUSH1 0xE0 SHL PUSH1 0x0 MSTORE PUSH1 0x11 PUSH1 0x4 MSTORE PUSH1 0x24 PUSH1 0x0 REVERT JUMPDEST ADD MLOAD SWAP1 POP CODESIZE DUP1 PUSH3 0x545 JUMP JUMPDEST SWAP1 PUSH1 0x4 PUSH1 0x5 DUP7 MUL DUP6 ADD ADD PUSH1 0x0 MSTORE PUSH1 0x20 PUSH1 0x0 KECCAK256 SWAP2 PUSH1 0x0 JUMPDEST PUSH1 0x1F NOT DUP6 AND DUP2 LT PUSH3 0x5F8 JUMPI POP SWAP3 PUSH1 0x5 SWAP3 PUSH1 0x1 SWAP3 PUSH1 0x4 SWAP7 SWAP6 DUP4 PUSH1 0x1F NOT DUP2 AND LT PUSH3 0x5DE JUMPI JUMPDEST POP POP POP DUP2 SHL ADD SWAP4 MUL ADD ADD SSTORE PUSH3 0x55D JUMP JUMPDEST ADD MLOAD PUSH1 0x0 NOT PUSH1 0xF8 DUP5 PUSH1 0x3 SHL AND SHR NOT AND SWAP1 SSTORE CODESIZE DUP1 DUP1 PUSH3 0x5CD JUMP JUMPDEST SWAP2 SWAP3 PUSH1 0x20 PUSH1 0x1 DUP2 SWAP3 DUP7 DUP6 ADD MLOAD DUP2 SSTORE ADD SWAP5 ADD SWAP3 ADD PUSH3 0x5A8 JUMP JUMPDEST PUSH1 0x4 PUSH1 0x5 DUP7 MUL DUP6 ADD ADD PUSH1 0x0 MSTORE PUSH1 0x20 PUSH1 0x0 KECCAK256 PUSH1 0x1F DUP5 ADD PUSH1 0x5 SHR DUP2 ADD PUSH1 0x20 DUP6 LT PUSH3 0x65A JUMPI JUMPDEST PUSH1 0x1F DUP4 ADD PUSH1 0x5 SHR DUP3 ADD DUP2 LT PUSH3 0x64D JUMPI POP POP PUSH3 0x523 JUMP JUMPDEST PUSH1 0x0 DUP2 SSTORE PUSH1 0x1 ADD PUSH3 0x635 JUMP JUMPDEST POP DUP1 PUSH3 0x635 JUMP JUMPDEST PUSH4 0x4E487B71 PUSH1 0xE0 SHL PUSH1 0x0 MSTORE PUSH1 0x22 PUSH1 0x4 MSTORE PUSH1 0x24 PUSH1 0x0 REVERT JUMPDEST SWAP1 PUSH1 0x7F AND SWAP1 PUSH3 0x50F JUMP JUMPDEST PUSH4 0x4E487B71 PUSH1 0xE0 SHL PUSH1 0x0 MSTORE PUSH1 0x41 PUSH1 0x4 MSTORE PUSH1 0x24 PUSH1 0x0 REVERT JUMPDEST ADD MLOAD SWAP1 POP CODESIZE DUP1 PUSH3 0x49B JUMP JUMPDEST SWAP1 PUSH1 0x1 PUSH1 0x5 DUP8 MUL DUP7 ADD ADD PUSH1 0x0 MSTORE PUSH1 0x20 PUSH1 0x0 KECCAK256 SWAP2 PUSH1 0x0 JUMPDEST PUSH1 0x1F NOT DUP6 AND DUP2 LT PUSH3 0x70E JUMPI POP SWAP2 DUP4 SWAP2 PUSH1 0x1 SWAP4 PUSH1 0x80 SWAP7 SWAP6 PUSH1 0x1F NOT DUP2 AND LT PUSH3 0x6F4 JUMPI JUMPDEST POP POP POP DUP2 SHL ADD PUSH1 0x1 PUSH1 0x5 DUP7 MUL DUP6 ADD ADD SSTORE PUSH3 0x4B8 JUMP JUMPDEST ADD MLOAD PUSH1 0x0 NOT PUSH1 0xF8 DUP5 PUSH1 0x3 SHL AND SHR NOT AND SWAP1 SSTORE CODESIZE DUP1 DUP1 PUSH3 0x6DE JUMP JUMPDEST SWAP2 SWAP3 PUSH1 0x20 PUSH1 0x1 DUP2 SWAP3 DUP7 DUP6 ADD MLOAD DUP2 SSTORE ADD SWAP5 ADD SWAP3 ADD PUSH3 0x6BB JUMP JUMPDEST PUSH1 0x1 PUSH1 0x5 DUP8 MUL DUP7 ADD ADD PUSH1 0x0 MSTORE PUSH1 0x20 PUSH1 0x0 KECCAK256 PUSH1 0x1F DUP5 ADD PUSH1 0x5 SHR DUP2 ADD PUSH1 0x20 DUP6 LT PUSH3 0x770 JUMPI JUMPDEST PUSH1 0x1F DUP4 ADD PUSH1 0x5 SHR DUP3 ADD DUP2 LT PUSH3 0x763 JUMPI POP POP PUSH3 0x47C JUMP JUMPDEST PUSH1 0x0 DUP2 SSTORE PUSH1 0x1 ADD PUSH3 0x74B JUMP JUMPDEST POP DUP1 PUSH3 0x74B JUMP JUMPDEST SWAP1 PUSH1 0x7F AND SWAP1 PUSH3 0x468 JUMP JUMPDEST ADD MLOAD SWAP1 POP CODESIZE DUP1 PUSH3 0x41E JUMP JUMPDEST SWAP3 POP PUSH1 0x5 DUP7 MUL DUP6 ADD PUSH1 0x0 MSTORE PUSH1 0x20 PUSH1 0x0 KECCAK256 SWAP1 PUSH1 0x0 SWAP4 JUMPDEST PUSH1 0x1F NOT DUP5 AND DUP6 LT PUSH3 0x7EE JUMPI PUSH1 0x1 SWAP5 POP DUP4 PUSH1 0x1F NOT DUP2 AND LT PUSH3 0x7D4 JUMPI JUMPDEST POP POP POP DUP2 SHL ADD PUSH1 0x5 DUP5 MUL DUP4 ADD SSTORE PUSH3 0x438 JUMP JUMPDEST ADD MLOAD PUSH1 0x0 NOT PUSH1 0xF8 DUP5 PUSH1 0x3 SHL AND SHR NOT AND SWAP1 SSTORE CODESIZE DUP1 DUP1 PUSH3 0x7C1 JUMP JUMPDEST DUP2 DUP2 ADD MLOAD DUP4 SSTORE PUSH1 0x20 SWAP5 DUP6 ADD SWAP5 PUSH1 0x1 SWAP1 SWAP4 ADD SWAP3 SWAP1 SWAP2 ADD SWAP1 PUSH3 0x7A4 JUMP JUMPDEST SWAP1 SWAP2 POP PUSH1 0x5 DUP7 MUL DUP6 ADD PUSH1 0x0 MSTORE PUSH1 0x20 PUSH1 0x0 KECCAK256 PUSH1 0x1F DUP5 ADD PUSH1 0x5 SHR DUP2 ADD PUSH1 0x20 DUP6 LT PUSH3 0x85C JUMPI JUMPDEST SWAP1 DUP5 SWAP4 SWAP3 SWAP2 JUMPDEST PUSH1 0x1F DUP4 ADD PUSH1 0x5 SHR DUP3 ADD DUP2 LT PUSH3 0x84C JUMPI POP POP PUSH3 0x405 JUMP JUMPDEST PUSH1 0x0 DUP2 SSTORE DUP6 SWAP5 POP PUSH1 0x1 ADD PUSH3 0x834 JUMP JUMPDEST POP DUP1 PUSH3 0x82E JUMP JUMPDEST SWAP2 PUSH1 0x7F AND SWAP2 PUSH3 0x3EF JUMP JUMPDEST PUSH4 0x4E487B71 PUSH1 0xE0 SHL PUSH1 0x0 MSTORE PUSH1 0x32 PUSH1 0x4 MSTORE PUSH1 0x24 PUSH1 0x0 REVERT JUMPDEST POP POP POP POP JUMPDEST PUSH1 0x40 MLOAD PUSH2 0x1314 SWAP1 DUP2 PUSH3 0xD74 DUP3 CODECOPY RETURN JUMPDEST PUSH1 0x40 MLOAD PUSH3 0x461BCD PUSH1 0xE5 SHL DUP2 MSTORE PUSH1 0x20 PUSH1 0x4 DUP3 ADD MSTORE PUSH1 0x17 PUSH1 0x24 DUP3 ADD MSTORE PUSH32 0x496E76616C6964206D696C6573746F6E65207365747570000000000000000000 PUSH1 0x44 DUP3 ADD MSTORE PUSH1 0x64 SWAP1 REVERT JUMPDEST SWAP1 POP ISZERO ISZERO CODESIZE PUSH3 0x2D8 JUMP JUMPDEST DUP5 MLOAD DUP2 EQ SWAP2 POP PUSH3 0x2D1 JUMP JUMPDEST SWAP1 MLOAD ISZERO SWAP2 DUP3 PUSH3 0x979 JUMPI JUMPDEST POP DUP2 PUSH3 0x96E JUMPI JUMPDEST POP PUSH3 0x88A JUMPI PUSH1 0x40 MLOAD PUSH3 0x461BCD PUSH1 0xE5 SHL DUP2 MSTORE PUSH1 0x20 PUSH1 0x4 DUP3 ADD MSTORE PUSH1 0x31 PUSH1 0x24 DUP3 ADD MSTORE PUSH32 0x4E6F6E2D6D696C6573746F6E652063616D706169676E2073686F756C64206E6F PUSH1 0x44 DUP3 ADD MSTORE PUSH17 0x742068617665206D696C6573746F6E6573 PUSH1 0x78 SHL PUSH1 0x64 DUP3 ADD MSTORE PUSH1 0x84 SWAP1 REVERT JUMPDEST SWAP1 POP MLOAD ISZERO CODESIZE PUSH3 0x909 JUMP JUMPDEST MLOAD ISZERO SWAP2 POP CODESIZE PUSH3 0x901 JUMP JUMPDEST PUSH1 0x8 SSTORE DUP2 PUSH1 0x9 SSTORE TIMESTAMP DUP3 TIMESTAMP SUB GT PUSH3 0x570 JUMPI PUSH1 0x1 SWAP2 TIMESTAMP SUB PUSH1 0xA SSTORE CODESIZE PUSH3 0x2B7 JUMP JUMPDEST PUSH1 0x40 MLOAD PUSH3 0x461BCD PUSH1 0xE5 SHL DUP2 MSTORE PUSH1 0x20 PUSH1 0x4 DUP3 ADD MSTORE PUSH1 0x1E PUSH1 0x24 DUP3 ADD MSTORE PUSH32 0x446561646C696E65206D75737420626520696E20746865206675747572650000 PUSH1 0x44 DUP3 ADD MSTORE PUSH1 0x64 SWAP1 REVERT JUMPDEST POP PUSH1 0x0 PUSH1 0x7 SSTORE PUSH3 0x2AD JUMP JUMPDEST ADD MLOAD SWAP1 POP CODESIZE DUP1 PUSH3 0x26E JUMP JUMPDEST PUSH1 0x3 PUSH1 0x0 SWAP1 DUP2 MSTORE SWAP4 POP PUSH32 0xC2575A0E9E593C00F959F8C92F12DB2869C3395A3B0502D05E2516446F71F85B SWAP2 SWAP1 JUMPDEST PUSH1 0x1F NOT DUP5 AND DUP6 LT PUSH3 0xA74 JUMPI PUSH1 0x1 SWAP5 POP DUP4 PUSH1 0x1F NOT DUP2 AND LT PUSH3 0xA5A JUMPI JUMPDEST POP POP POP DUP2 SHL ADD PUSH1 0x3 SSTORE PUSH3 0x284 JUMP JUMPDEST ADD MLOAD PUSH1 0x0 NOT PUSH1 0xF8 DUP5 PUSH1 0x3 SHL AND SHR NOT AND SWAP1 SSTORE CODESIZE DUP1 DUP1 PUSH3 0xA4B JUMP JUMPDEST DUP2 DUP2 ADD MLOAD DUP4 SSTORE PUSH1 0x20 SWAP5 DUP6 ADD SWAP5 PUSH1 0x1 SWAP1 SWAP4 ADD SWAP3 SWAP1 SWAP2 ADD SWAP1 PUSH3 0xA2E JUMP JUMPDEST PUSH1 0x3 PUSH1 0x0 MSTORE SWAP1 SWAP2 POP PUSH32 0xC2575A0E9E593C00F959F8C92F12DB2869C3395A3B0502D05E2516446F71F85B PUSH1 0x1F DUP5 ADD PUSH1 0x5 SHR DUP2 ADD PUSH1 0x20 DUP6 LT PUSH3 0xAFA JUMPI JUMPDEST SWAP1 DUP5 SWAP4 SWAP3 SWAP2 JUMPDEST PUSH1 0x1F DUP4 ADD PUSH1 0x5 SHR DUP3 ADD DUP2 LT PUSH3 0xAEA JUMPI POP POP PUSH3 0x255 JUMP JUMPDEST PUSH1 0x0 DUP2 SSTORE DUP6 SWAP5 POP PUSH1 0x1 ADD PUSH3 0xAD2 JUMP JUMPDEST POP DUP1 PUSH3 0xACC JUMP JUMPDEST SWAP2 PUSH1 0x7F AND SWAP2 PUSH3 0x23F JUMP JUMPDEST ADD MLOAD SWAP1 POP CODESIZE DUP1 PUSH3 0x204 JUMP JUMPDEST PUSH1 0x2 PUSH1 0x0 SWAP1 DUP2 MSTORE SWAP4 POP PUSH1 0x0 DUP1 MLOAD PUSH1 0x20 PUSH3 0x2088 DUP4 CODECOPY DUP2 MLOAD SWAP2 MSTORE SWAP2 SWAP1 JUMPDEST PUSH1 0x1F NOT DUP5 AND DUP6 LT PUSH3 0xB7B JUMPI PUSH1 0x1 SWAP5 POP DUP4 PUSH1 0x1F NOT DUP2 AND LT PUSH3 0xB61 JUMPI JUMPDEST POP POP POP DUP2 SHL ADD PUSH1 0x2 SSTORE PUSH3 0x21A JUMP JUMPDEST ADD MLOAD PUSH1 0x0 NOT PUSH1 0xF8 DUP5 PUSH1 0x3 SHL AND SHR NOT AND SWAP1 SSTORE CODESIZE DUP1 DUP1 PUSH3 0xB52 JUMP JUMPDEST DUP2 DUP2 ADD MLOAD DUP4 SSTORE PUSH1 0x20 SWAP5 DUP6 ADD SWAP5 PUSH1 0x1 SWAP1 SWAP4 ADD SWAP3 SWAP1 SWAP2 ADD SWAP1 PUSH3 0xB35 JUMP JUMPDEST PUSH1 0x2 PUSH1 0x0 MSTORE SWAP1 SWAP2 POP PUSH1 0x0 DUP1 MLOAD PUSH1 0x20 PUSH3 0x2088 DUP4 CODECOPY DUP2 MLOAD SWAP2 MSTORE PUSH1 0x1F DUP5 ADD PUSH1 0x5 SHR DUP2 ADD PUSH1 0x20 DUP6 LT PUSH3 0xBF0 JUMPI JUMPDEST SWAP1 DUP5 SWAP4 SWAP3 SWAP2 JUMPDEST PUSH1 0x1F DUP4 ADD PUSH1 0x5 SHR DUP3 ADD DUP2 LT PUSH3 0xBE0 JUMPI POP POP PUSH3 0x1EB JUMP JUMPDEST PUSH1 0x0 DUP2 SSTORE DUP6 SWAP5 POP PUSH1 0x1 ADD PUSH3 0xBC8 JUMP JUMPDEST POP DUP1 PUSH3 0xBC2 JUMP JUMPDEST SWAP2 PUSH1 0x7F AND SWAP2 PUSH3 0x1D5 JUMP JUMPDEST DUP2 MLOAD DUP2 MSTORE PUSH1 0x20 SWAP2 DUP3 ADD SWAP2 ADD PUSH3 0x168 JUMP JUMPDEST PUSH1 0x0 DUP1 REVERT JUMPDEST PUSH1 0x40 MLOAD SWAP2 SWAP1 PUSH1 0x1F ADD PUSH1 0x1F NOT AND DUP3 ADD PUSH1 0x1 PUSH1 0x1 PUSH1 0x40 SHL SUB DUP2 GT DUP4 DUP3 LT OR PUSH3 0x683 JUMPI PUSH1 0x40 MSTORE JUMP JUMPDEST MLOAD SWAP1 PUSH1 0x1 PUSH1 0x1 PUSH1 0xA0 SHL SUB DUP3 AND DUP3 SUB PUSH3 0xC14 JUMPI JUMP JUMPDEST SWAP2 SWAP1 DUP1 PUSH1 0x1F DUP5 ADD SLT ISZERO PUSH3 0xC14 JUMPI DUP3 MLOAD PUSH1 0x1 PUSH1 0x1 PUSH1 0x40 SHL SUB DUP2 GT PUSH3 0x683 JUMPI PUSH1 0x20 SWAP1 PUSH3 0xC8A PUSH1 0x1F DUP3 ADD PUSH1 0x1F NOT AND DUP4 ADD PUSH3 0xC19 JUMP JUMPDEST SWAP3 DUP2 DUP5 MSTORE DUP3 DUP3 DUP8 ADD ADD GT PUSH3 0xC14 JUMPI PUSH1 0x0 JUMPDEST DUP2 DUP2 LT PUSH3 0xCB2 JUMPI POP DUP3 PUSH1 0x0 SWAP4 SWAP5 SWAP6 POP ADD ADD MSTORE SWAP1 JUMP JUMPDEST DUP6 DUP2 ADD DUP4 ADD MLOAD DUP5 DUP3 ADD DUP5 ADD MSTORE DUP3 ADD PUSH3 0xC9C JUMP JUMPDEST PUSH1 0x1 PUSH1 0x1 PUSH1 0x40 SHL SUB DUP2 GT PUSH3 0x683 JUMPI PUSH1 0x5 SHL PUSH1 0x20 ADD SWAP1 JUMP JUMPDEST DUP2 PUSH1 0x1F DUP3 ADD SLT ISZERO PUSH3 0xC14 JUMPI DUP1 MLOAD SWAP2 PUSH3 0xCFC PUSH3 0x13F DUP5 PUSH3 0xCC6 JUMP JUMPDEST SWAP2 DUP3 SWAP4 DUP1 DUP5 MSTORE PUSH1 0x20 DUP1 DUP1 SWAP6 ADD SWAP2 PUSH1 0x5 SHL DUP4 ADD ADD SWAP3 DUP1 DUP5 GT PUSH3 0xC14 JUMPI DUP5 DUP4 ADD SWAP2 JUMPDEST DUP5 DUP4 LT PUSH3 0xD2E JUMPI POP POP POP POP POP POP SWAP1 JUMP JUMPDEST DUP3 MLOAD PUSH1 0x1 PUSH1 0x1 PUSH1 0x40 SHL SUB DUP2 GT PUSH3 0xC14 JUMPI DUP7 SWAP2 PUSH3 0xD52 DUP5 DUP5 DUP1 SWAP5 DUP10 ADD ADD PUSH3 0xC54 JUMP JUMPDEST DUP2 MSTORE ADD SWAP3 ADD SWAP2 PUSH3 0xD1D JUMP JUMPDEST DUP1 MLOAD DUP3 LT ISZERO PUSH3 0x86F JUMPI PUSH1 0x20 SWAP2 PUSH1 0x5 SHL ADD ADD SWAP1 JUMP INVALID PUSH1 0x80 DUP1 PUSH1 0x40 MSTORE PUSH1 0x4 CALLDATASIZE LT ISZERO PUSH2 0x13 JUMPI PUSH1 0x0 DUP1 REVERT JUMPDEST PUSH1 0x0 CALLDATALOAD PUSH1 0xE0 SHR SWAP1 DUP2 PUSH3 0xB37044 EQ PUSH2 0xF75 JUMPI POP DUP1 PUSH4 0x200D2ED2 EQ PUSH2 0xF48 JUMPI DUP1 PUSH4 0x2636B945 EQ PUSH2 0xF2A JUMPI DUP1 PUSH4 0x29DCB0CF EQ PUSH2 0xF0C JUMPI DUP1 PUSH4 0x2E41AE7D EQ PUSH2 0xB34 JUMPI DUP1 PUSH4 0x38AF3EED EQ PUSH2 0xB0B JUMPI DUP1 PUSH4 0x3F7A86F5 EQ PUSH2 0x9DC JUMPI DUP1 PUSH4 0x4A79D50C EQ PUSH2 0x936 JUMPI DUP1 PUSH4 0x51CC5CF2 EQ PUSH2 0x918 JUMPI DUP1 PUSH4 0x5C6A0246 EQ PUSH2 0x8F5 JUMPI DUP1 PUSH4 0x7284E416 EQ PUSH2 0x813 JUMPI DUP1 PUSH4 0x74580B7E EQ PUSH2 0x689 JUMPI DUP1 PUSH4 0x759DADCE EQ PUSH2 0x65F JUMPI DUP1 PUSH4 0x798F0EF1 EQ PUSH2 0x570 JUMPI DUP1 PUSH4 0x895F6430 EQ PUSH2 0x552 JUMPI DUP1 PUSH4 0x980E7844 EQ PUSH2 0x508 JUMPI DUP1 PUSH4 0xA113074B EQ PUSH2 0x4DF JUMPI DUP1 PUSH4 0xAB231511 EQ PUSH2 0x4C1 JUMPI DUP1 PUSH4 0xC75D4C7E EQ PUSH2 0x31B JUMPI DUP1 PUSH4 0xCC6CB19A EQ PUSH2 0x2DD JUMPI DUP1 PUSH4 0xD7557F18 EQ PUSH2 0x291 JUMPI DUP1 PUSH4 0xE89E4ED6 EQ PUSH2 0x1EF JUMPI PUSH4 0xED88C68E EQ PUSH2 0x11B JUMPI PUSH1 0x0 DUP1 REVERT JUMPDEST PUSH1 0x0 CALLDATASIZE PUSH1 0x3 NOT ADD SLT PUSH2 0x1EA JUMPI PUSH1 0xFF PUSH1 0x4 SLOAD PUSH1 0x8 SHR AND PUSH1 0x3 DUP2 LT ISZERO PUSH2 0x1D4 JUMPI PUSH2 0x143 SWAP1 ISZERO PUSH2 0x1123 JUMP JUMPDEST CALLVALUE ISZERO PUSH2 0x1A1 JUMPI CALLER PUSH1 0x0 MSTORE PUSH1 0xD PUSH1 0x20 MSTORE PUSH1 0x40 PUSH1 0x0 KECCAK256 PUSH2 0x162 CALLVALUE DUP3 SLOAD PUSH2 0x1165 JUMP JUMPDEST SWAP1 SSTORE PUSH2 0x170 CALLVALUE PUSH1 0x6 SLOAD PUSH2 0x1165 JUMP JUMPDEST PUSH1 0x6 SSTORE PUSH1 0x40 MLOAD CALLVALUE DUP2 MSTORE PUSH32 0x264F630D9EFA0D07053A31163641D9FCC0ADAFC9D9E76F1C37C2CE3A558D2C52 PUSH1 0x20 CALLER SWAP3 LOG2 STOP JUMPDEST PUSH1 0x40 MLOAD PUSH3 0x461BCD PUSH1 0xE5 SHL DUP2 MSTORE PUSH1 0x20 PUSH1 0x4 DUP3 ADD MSTORE PUSH1 0xB PUSH1 0x24 DUP3 ADD MSTORE PUSH11 0x139BC8115512081CD95B9D PUSH1 0xAA SHL PUSH1 0x44 DUP3 ADD MSTORE PUSH1 0x64 SWAP1 REVERT JUMPDEST PUSH4 0x4E487B71 PUSH1 0xE0 SHL PUSH1 0x0 MSTORE PUSH1 0x21 PUSH1 0x4 MSTORE PUSH1 0x24 PUSH1 0x0 REVERT JUMPDEST PUSH1 0x0 DUP1 REVERT JUMPDEST CALLVALUE PUSH2 0x1EA JUMPI PUSH1 0x20 CALLDATASIZE PUSH1 0x3 NOT ADD SLT PUSH2 0x1EA JUMPI PUSH1 0x4 CALLDATALOAD PUSH1 0xC SLOAD DUP2 LT ISZERO PUSH2 0x1EA JUMPI PUSH2 0x219 PUSH2 0x265 SWAP2 PUSH2 0x10D2 JUMP JUMPDEST POP PUSH2 0x28D PUSH2 0x226 DUP3 PUSH2 0xFEC JUMP JUMPDEST SWAP2 PUSH2 0x233 PUSH1 0x1 DUP3 ADD PUSH2 0xFEC JUMP JUMPDEST PUSH1 0x2 DUP3 ADD SLOAD SWAP2 PUSH2 0x273 PUSH2 0x250 PUSH1 0x4 PUSH1 0xFF PUSH1 0x3 DUP6 ADD SLOAD AND SWAP4 ADD PUSH2 0xFEC JUMP JUMPDEST SWAP3 PUSH1 0x40 MLOAD SWAP8 DUP9 SWAP8 PUSH1 0xA0 DUP10 MSTORE PUSH1 0xA0 DUP10 ADD SWAP1 PUSH2 0x1092 JUMP JUMPDEST SWAP1 DUP8 DUP3 SUB PUSH1 0x20 DUP10 ADD MSTORE PUSH2 0x1092 JUMP JUMPDEST SWAP3 PUSH1 0x40 DUP7 ADD MSTORE ISZERO ISZERO PUSH1 0x60 DUP6 ADD MSTORE DUP4 DUP3 SUB PUSH1 0x80 DUP6 ADD MSTORE PUSH2 0x1092 JUMP JUMPDEST SUB SWAP1 RETURN JUMPDEST CALLVALUE PUSH2 0x1EA JUMPI PUSH1 0x0 CALLDATASIZE PUSH1 0x3 NOT ADD SLT PUSH2 0x1EA JUMPI PUSH2 0x2B7 PUSH1 0x1 DUP1 PUSH1 0xA0 SHL SUB PUSH1 0x0 SLOAD AND CALLER EQ PUSH2 0x1172 JUMP JUMPDEST PUSH1 0xFF PUSH1 0x4 SLOAD PUSH1 0x8 SHR AND PUSH1 0x3 DUP2 LT ISZERO PUSH2 0x1D4 JUMPI PUSH2 0x2D3 SWAP1 ISZERO PUSH2 0x1123 JUMP JUMPDEST PUSH2 0x2DB PUSH2 0x11F0 JUMP JUMPDEST STOP JUMPDEST CALLVALUE PUSH2 0x1EA JUMPI PUSH1 0x20 CALLDATASIZE PUSH1 0x3 NOT ADD SLT PUSH2 0x1EA JUMPI PUSH1 0x4 CALLDATALOAD PUSH1 0x1 PUSH1 0x1 PUSH1 0xA0 SHL SUB DUP2 AND SWAP1 DUP2 SWAP1 SUB PUSH2 0x1EA JUMPI PUSH1 0x0 MSTORE PUSH1 0xD PUSH1 0x20 MSTORE PUSH1 0x20 PUSH1 0x40 PUSH1 0x0 KECCAK256 SLOAD PUSH1 0x40 MLOAD SWAP1 DUP2 MSTORE RETURN JUMPDEST CALLVALUE PUSH2 0x1EA JUMPI PUSH1 0x20 CALLDATASIZE PUSH1 0x3 NOT ADD SLT PUSH2 0x1EA JUMPI PUSH1 0x4 CALLDATALOAD PUSH1 0x1 DUP1 PUSH1 0xA0 SHL SUB PUSH2 0x345 DUP2 PUSH1 0x0 SLOAD AND CALLER EQ PUSH2 0x1172 JUMP JUMPDEST PUSH1 0x4 SLOAD PUSH1 0xFF DUP2 PUSH1 0x8 SHR AND SWAP1 PUSH1 0x3 DUP3 LT ISZERO PUSH2 0x1D4 JUMPI PUSH2 0x365 PUSH1 0xFF SWAP3 ISZERO PUSH2 0x1123 JUMP JUMPDEST AND PUSH1 0x4 DUP2 LT ISZERO PUSH2 0x1D4 JUMPI PUSH1 0x2 SUB PUSH2 0x484 JUMPI PUSH2 0x385 PUSH1 0xA SLOAD PUSH1 0x9 SLOAD SWAP1 PUSH2 0x1165 JUMP JUMPDEST TIMESTAMP LT PUSH2 0x43F JUMPI PUSH1 0x8 SLOAD DUP3 GT PUSH2 0x405 JUMPI PUSH1 0x0 DUP1 DUP1 DUP5 DUP2 SWAP5 PUSH2 0x3A7 DUP3 SELFBALANCE LT ISZERO PUSH2 0x11AF JUMP JUMPDEST TIMESTAMP PUSH1 0xA SSTORE PUSH1 0x1 SLOAD AND DUP3 DUP3 ISZERO PUSH2 0x3FC JUMPI JUMPDEST CALL ISZERO PUSH2 0x3F0 JUMPI PUSH1 0x20 PUSH32 0x4A37B25AAB49761ECF63117FE82B98D750917451133CF797507BC9FB5B96044A SWAP2 PUSH1 0x40 MLOAD SWAP1 DUP2 MSTORE LOG1 SELFBALANCE ISZERO PUSH2 0x2D3 JUMPI STOP JUMPDEST PUSH1 0x40 MLOAD RETURNDATASIZE PUSH1 0x0 DUP3 RETURNDATACOPY RETURNDATASIZE SWAP1 REVERT JUMPDEST POP PUSH2 0x8FC PUSH2 0x3B7 JUMP JUMPDEST PUSH1 0x40 MLOAD PUSH3 0x461BCD PUSH1 0xE5 SHL DUP2 MSTORE PUSH1 0x20 PUSH1 0x4 DUP3 ADD MSTORE PUSH1 0x12 PUSH1 0x24 DUP3 ADD MSTORE PUSH18 0x416D6F756E7420657863656564732063617 PUSH1 0x74 SHL PUSH1 0x44 DUP3 ADD MSTORE PUSH1 0x64 SWAP1 REVERT JUMPDEST PUSH1 0x40 MLOAD PUSH3 0x461BCD PUSH1 0xE5 SHL DUP2 MSTORE PUSH1 0x20 PUSH1 0x4 DUP3 ADD MSTORE PUSH1 0x1A PUSH1 0x24 DUP3 ADD MSTORE PUSH32 0x5769746864726177616C206E6F742079657420616C6C6F776564000000000000 PUSH1 0x44 DUP3 ADD MSTORE PUSH1 0x64 SWAP1 REVERT JUMPDEST PUSH1 0x40 MLOAD PUSH3 0x461BCD PUSH1 0xE5 SHL DUP2 MSTORE PUSH1 0x20 PUSH1 0x4 DUP3 ADD MSTORE PUSH1 0x15 PUSH1 0x24 DUP3 ADD MSTORE PUSH21 0x4E6F7420726563757272696E672066756E64696E67 PUSH1 0x58 SHL PUSH1 0x44 DUP3 ADD MSTORE PUSH1 0x64 SWAP1 REVERT JUMPDEST CALLVALUE PUSH2 0x1EA JUMPI PUSH1 0x0 CALLDATASIZE PUSH1 0x3 NOT ADD SLT PUSH2 0x1EA JUMPI PUSH1 0x20 PUSH1 0xA SLOAD PUSH1 0x40 MLOAD SWAP1 DUP2 MSTORE RETURN JUMPDEST CALLVALUE PUSH2 0x1EA JUMPI PUSH1 0x0 CALLDATASIZE PUSH1 0x3 NOT ADD SLT PUSH2 0x1EA JUMPI PUSH1 0x0 SLOAD PUSH1 0x40 MLOAD PUSH1 0x1 PUSH1 0x1 PUSH1 0xA0 SHL SUB SWAP1 SWAP2 AND DUP2 MSTORE PUSH1 0x20 SWAP1 RETURN JUMPDEST CALLVALUE PUSH2 0x1EA JUMPI PUSH1 0x0 CALLDATASIZE PUSH1 0x3 NOT ADD SLT PUSH2 0x1EA JUMPI PUSH2 0x52E PUSH1 0x1 DUP1 PUSH1 0xA0 SHL SUB PUSH1 0x0 SLOAD AND CALLER EQ PUSH2 0x1172 JUMP JUMPDEST PUSH1 0xFF PUSH1 0x4 SLOAD PUSH1 0x8 SHR AND PUSH1 0x3 DUP2 LT ISZERO PUSH2 0x1D4 JUMPI PUSH2 0x54A SWAP1 ISZERO PUSH2 0x1123 JUMP JUMPDEST PUSH2 0x2DB PUSH2 0x12A8 JUMP JUMPDEST CALLVALUE PUSH2 0x1EA JUMPI PUSH1 0x0 CALLDATASIZE PUSH1 0x3 NOT ADD SLT PUSH2 0x1EA JUMPI PUSH1 0x20 PUSH1 0x9 SLOAD PUSH1 0x40 MLOAD SWAP1 DUP2 MSTORE RETURN JUMPDEST CALLVALUE PUSH2 0x1EA JUMPI PUSH1 0x20 CALLDATASIZE PUSH1 0x3 NOT ADD SLT PUSH2 0x1EA JUMPI PUSH1 0x4 CALLDATALOAD PUSH1 0x1 DUP1 PUSH1 0xA0 SHL SUB PUSH2 0x59A DUP2 PUSH1 0x0 SLOAD AND CALLER EQ PUSH2 0x1172 JUMP JUMPDEST PUSH1 0x4 SLOAD PUSH1 0xFF DUP2 PUSH1 0x8 SHR AND SWAP1 PUSH1 0x3 DUP3 LT ISZERO PUSH2 0x1D4 JUMPI PUSH2 0x5BA PUSH1 0xFF SWAP3 ISZERO PUSH2 0x1123 JUMP JUMPDEST AND PUSH1 0x4 DUP2 LT ISZERO PUSH2 0x1D4 JUMPI PUSH2 0x623 JUMPI PUSH1 0x0 DUP1 DUP1 DUP5 DUP2 SWAP5 PUSH2 0x5DB DUP3 SELFBALANCE LT ISZERO PUSH2 0x11AF JUMP JUMPDEST PUSH1 0x1 SLOAD AND DUP3 DUP3 ISZERO PUSH2 0x61A JUMPI JUMPDEST CALL ISZERO PUSH2 0x3F0 JUMPI PUSH1 0x20 PUSH32 0x4A37B25AAB49761ECF63117FE82B98D750917451133CF797507BC9FB5B96044A SWAP2 PUSH1 0x40 MLOAD SWAP1 DUP2 MSTORE LOG1 STOP JUMPDEST POP PUSH2 0x8FC PUSH2 0x5E7 JUMP JUMPDEST PUSH1 0x40 MLOAD PUSH3 0x461BCD PUSH1 0xE5 SHL DUP2 MSTORE PUSH1 0x20 PUSH1 0x4 DUP3 ADD MSTORE PUSH1 0x14 PUSH1 0x24 DUP3 ADD MSTORE PUSH20 0x4E6F7420666C657869626C652066756E64696E67 PUSH1 0x60 SHL PUSH1 0x44 DUP3 ADD MSTORE PUSH1 0x64 SWAP1 REVERT JUMPDEST CALLVALUE PUSH2 0x1EA JUMPI PUSH1 0x0 CALLDATASIZE PUSH1 0x3 NOT ADD SLT PUSH2 0x1EA JUMPI PUSH1 0xFF PUSH1 0x4 SLOAD AND PUSH1 0x40 MLOAD PUSH1 0x4 DUP3 LT ISZERO PUSH2 0x1D4 JUMPI PUSH1 0x20 SWAP2 DUP2 MSTORE RETURN JUMPDEST CALLVALUE PUSH2 0x1EA JUMPI PUSH1 0x0 CALLDATASIZE PUSH1 0x3 NOT ADD SLT PUSH2 0x1EA JUMPI PUSH1 0x0 SLOAD PUSH1 0x1 PUSH1 0x1 PUSH1 0xA0 SHL SUB SWAP1 PUSH2 0x6B3 SWAP1 DUP3 AND CALLER EQ PUSH2 0x1172 JUMP JUMPDEST PUSH1 0x4 SLOAD PUSH1 0xFF DUP2 PUSH1 0x8 SHR AND SWAP1 PUSH1 0x3 DUP3 LT ISZERO PUSH2 0x1D4 JUMPI PUSH2 0x6D3 PUSH1 0xFF SWAP3 ISZERO PUSH2 0x1123 JUMP JUMPDEST AND PUSH1 0x4 DUP2 LT ISZERO PUSH2 0x1D4 JUMPI PUSH1 0x3 PUSH2 0x6E9 SWAP2 EQ PUSH2 0x1226 JUMP JUMPDEST PUSH2 0x6F7 PUSH1 0x7 SLOAD TIMESTAMP LT ISZERO PUSH2 0x1267 JUMP JUMPDEST PUSH1 0xB SLOAD PUSH1 0xFF DUP2 AND PUSH2 0x7DC JUMPI PUSH1 0x6 SLOAD PUSH1 0x5 SLOAD GT PUSH2 0x7A4 JUMPI SELFBALANCE ISZERO PUSH2 0x774 JUMPI PUSH1 0x0 DUP1 DUP1 SWAP4 PUSH1 0x1 DUP3 SWAP5 PUSH1 0xFF NOT AND OR PUSH1 0xB SSTORE PUSH1 0x1 SLOAD AND SELFBALANCE SWAP1 DUP3 DUP3 ISZERO PUSH2 0x76B JUMPI JUMPDEST CALL ISZERO PUSH2 0x3F0 JUMPI PUSH32 0x4A37B25AAB49761ECF63117FE82B98D750917451133CF797507BC9FB5B96044A PUSH1 0x20 SELFBALANCE PUSH1 0x40 MLOAD SWAP1 DUP2 MSTORE LOG1 PUSH2 0x2DB PUSH2 0x11F0 JUMP JUMPDEST POP PUSH2 0x8FC PUSH2 0x732 JUMP JUMPDEST PUSH1 0x40 MLOAD PUSH3 0x461BCD PUSH1 0xE5 SHL DUP2 MSTORE PUSH1 0x20 PUSH1 0x4 DUP3 ADD MSTORE PUSH1 0x8 PUSH1 0x24 DUP3 ADD MSTORE PUSH8 0x4E6F2066756E6473 PUSH1 0xC0 SHL PUSH1 0x44 DUP3 ADD MSTORE PUSH1 0x64 SWAP1 REVERT JUMPDEST PUSH1 0x40 MLOAD PUSH3 0x461BCD PUSH1 0xE5 SHL DUP2 MSTORE PUSH1 0x20 PUSH1 0x4 DUP3 ADD MSTORE PUSH1 0x10 PUSH1 0x24 DUP3 ADD MSTORE PUSH16 0x11DBD85B081B9BDD081C995858DA1959 PUSH1 0x82 SHL PUSH1 0x44 DUP3 ADD MSTORE PUSH1 0x64 SWAP1 REVERT JUMPDEST PUSH1 0x40 MLOAD PUSH3 0x461BCD PUSH1 0xE5 SHL DUP2 MSTORE PUSH1 0x20 PUSH1 0x4 DUP3 ADD MSTORE PUSH1 0xF PUSH1 0x24 DUP3 ADD MSTORE PUSH15 0x105B1C9958591E4818DB185A5B5959 PUSH1 0x8A SHL PUSH1 0x44 DUP3 ADD MSTORE PUSH1 0x64 SWAP1 REVERT JUMPDEST CALLVALUE PUSH2 0x1EA JUMPI PUSH1 0x0 CALLDATASIZE PUSH1 0x3 NOT ADD SLT PUSH2 0x1EA JUMPI PUSH1 0x40 MLOAD PUSH1 0x0 PUSH1 0x3 SLOAD PUSH2 0x835 DUP2 PUSH2 0xFB2 JUMP JUMPDEST DUP1 DUP5 MSTORE SWAP1 PUSH1 0x1 SWAP1 DUP2 DUP2 AND SWAP1 DUP2 ISZERO PUSH2 0x8CE JUMPI POP PUSH1 0x1 EQ PUSH2 0x873 JUMPI JUMPDEST PUSH2 0x28D DUP5 PUSH2 0x85F DUP2 DUP7 SUB DUP3 PUSH2 0xF90 JUMP JUMPDEST PUSH1 0x40 MLOAD SWAP2 DUP3 SWAP2 PUSH1 0x20 DUP4 MSTORE PUSH1 0x20 DUP4 ADD SWAP1 PUSH2 0x1092 JUMP JUMPDEST PUSH1 0x3 PUSH1 0x0 SWAP1 DUP2 MSTORE SWAP3 POP PUSH32 0xC2575A0E9E593C00F959F8C92F12DB2869C3395A3B0502D05E2516446F71F85B JUMPDEST DUP3 DUP5 LT PUSH2 0x8B6 JUMPI POP POP POP DUP2 ADD PUSH1 0x20 ADD PUSH2 0x85F DUP3 PUSH2 0x84F JUMP JUMPDEST DUP1 SLOAD PUSH1 0x20 DUP6 DUP8 ADD DUP2 ADD SWAP2 SWAP1 SWAP2 MSTORE SWAP1 SWAP4 ADD SWAP3 DUP2 ADD PUSH2 0x89E JUMP JUMPDEST PUSH1 0xFF NOT AND PUSH1 0x20 DUP1 DUP8 ADD SWAP2 SWAP1 SWAP2 MSTORE SWAP3 ISZERO ISZERO PUSH1 0x5 SHL DUP6 ADD SWAP1 SWAP3 ADD SWAP3 POP PUSH2 0x85F SWAP2 POP DUP4 SWAP1 POP PUSH2 0x84F JUMP JUMPDEST CALLVALUE PUSH2 0x1EA JUMPI PUSH1 0x0 CALLDATASIZE PUSH1 0x3 NOT ADD SLT PUSH2 0x1EA JUMPI PUSH1 0x20 PUSH1 0xFF PUSH1 0xB SLOAD AND PUSH1 0x40 MLOAD SWAP1 ISZERO ISZERO DUP2 MSTORE RETURN JUMPDEST CALLVALUE PUSH2 0x1EA JUMPI PUSH1 0x0 CALLDATASIZE PUSH1 0x3 NOT ADD SLT PUSH2 0x1EA JUMPI PUSH1 0x20 PUSH1 0x8 SLOAD PUSH1 0x40 MLOAD SWAP1 DUP2 MSTORE RETURN JUMPDEST CALLVALUE PUSH2 0x1EA JUMPI PUSH1 0x0 CALLDATASIZE PUSH1 0x3 NOT ADD SLT PUSH2 0x1EA JUMPI PUSH1 0x40 MLOAD PUSH1 0x0 PUSH1 0x2 SLOAD PUSH2 0x958 DUP2 PUSH2 0xFB2 JUMP JUMPDEST DUP1 DUP5 MSTORE SWAP1 PUSH1 0x1 SWAP1 DUP2 DUP2 AND SWAP1 DUP2 ISZERO PUSH2 0x8CE JUMPI POP PUSH1 0x1 EQ PUSH2 0x981 JUMPI PUSH2 0x28D DUP5 PUSH2 0x85F DUP2 DUP7 SUB DUP3 PUSH2 0xF90 JUMP JUMPDEST PUSH1 0x2 PUSH1 0x0 SWAP1 DUP2 MSTORE SWAP3 POP PUSH32 0x405787FA12A823E0F2B7631CC41B3BA8828B3321CA811111FA75CD3AA3BB5ACE JUMPDEST DUP3 DUP5 LT PUSH2 0x9C4 JUMPI POP POP POP DUP2 ADD PUSH1 0x20 ADD PUSH2 0x85F DUP3 PUSH2 0x84F JUMP JUMPDEST DUP1 SLOAD PUSH1 0x20 DUP6 DUP8 ADD DUP2 ADD SWAP2 SWAP1 SWAP2 MSTORE SWAP1 SWAP4 ADD SWAP3 DUP2 ADD PUSH2 0x9AC JUMP JUMPDEST CALLVALUE PUSH2 0x1EA JUMPI PUSH1 0x0 CALLDATASIZE PUSH1 0x3 NOT ADD SLT PUSH2 0x1EA JUMPI PUSH1 0x4 SLOAD PUSH1 0xFF DUP2 PUSH1 0x8 SHR AND SWAP1 PUSH1 0x3 DUP3 LT ISZERO PUSH2 0x1D4 JUMPI PUSH2 0xA0D PUSH1 0xFF SWAP3 ISZERO PUSH2 0x1123 JUMP JUMPDEST AND PUSH1 0x4 DUP2 LT ISZERO PUSH2 0x1D4 JUMPI PUSH1 0x3 PUSH2 0xA23 SWAP2 EQ PUSH2 0x1226 JUMP JUMPDEST PUSH2 0xA31 PUSH1 0x7 SLOAD TIMESTAMP LT ISZERO PUSH2 0x1267 JUMP JUMPDEST PUSH1 0x6 SLOAD PUSH1 0x5 SLOAD GT ISZERO PUSH2 0xAC6 JUMPI CALLER PUSH1 0x0 MSTORE PUSH1 0xD PUSH1 0x20 MSTORE PUSH1 0x40 PUSH1 0x0 KECCAK256 SLOAD ISZERO PUSH2 0xA89 JUMPI CALLER PUSH1 0x0 MSTORE PUSH1 0xD PUSH1 0x20 MSTORE PUSH1 0x0 DUP1 DUP1 DUP1 PUSH1 0x40 DUP2 KECCAK256 DUP2 DUP2 SLOAD SWAP2 SSTORE DUP2 DUP2 ISZERO PUSH2 0xA80 JUMPI JUMPDEST CALLER SWAP1 CALL ISZERO PUSH2 0x3F0 JUMPI SELFBALANCE ISZERO PUSH2 0x54A JUMPI STOP JUMPDEST POP PUSH2 0x8FC PUSH2 0xA70 JUMP JUMPDEST PUSH1 0x40 MLOAD PUSH3 0x461BCD PUSH1 0xE5 SHL DUP2 MSTORE PUSH1 0x20 PUSH1 0x4 DUP3 ADD MSTORE PUSH1 0x15 PUSH1 0x24 DUP3 ADD MSTORE PUSH21 0x139BC8191BDB985D1A5BDB881D1BC81C99599D5B99 PUSH1 0x5A SHL PUSH1 0x44 DUP3 ADD MSTORE PUSH1 0x64 SWAP1 REVERT JUMPDEST PUSH1 0x40 MLOAD PUSH3 0x461BCD PUSH1 0xE5 SHL DUP2 MSTORE PUSH1 0x20 PUSH1 0x4 DUP3 ADD MSTORE PUSH1 0x1B PUSH1 0x24 DUP3 ADD MSTORE PUSH32 0x476F616C20726561636865643B2063616E6E6F7420726566756E640000000000 PUSH1 0x44 DUP3 ADD MSTORE PUSH1 0x64 SWAP1 REVERT JUMPDEST CALLVALUE PUSH2 0x1EA JUMPI PUSH1 0x0 CALLDATASIZE PUSH1 0x3 NOT ADD SLT PUSH2 0x1EA JUMPI PUSH1 0x1 SLOAD PUSH1 0x40 MLOAD PUSH1 0x1 PUSH1 0x1 PUSH1 0xA0 SHL SUB SWAP1 SWAP2 AND DUP2 MSTORE PUSH1 0x20 SWAP1 RETURN JUMPDEST CALLVALUE PUSH2 0x1EA JUMPI PUSH1 0x40 CALLDATASIZE PUSH1 0x3 NOT ADD SLT PUSH2 0x1EA JUMPI PUSH1 0x24 CALLDATALOAD PUSH8 0xFFFFFFFFFFFFFFFF DUP1 DUP3 GT PUSH2 0x1EA JUMPI CALLDATASIZE PUSH1 0x23 DUP4 ADD SLT ISZERO PUSH2 0x1EA JUMPI DUP2 PUSH1 0x4 ADD CALLDATALOAD DUP2 DUP2 GT PUSH2 0xE12 JUMPI PUSH1 0x40 MLOAD SWAP3 PUSH2 0xB87 PUSH1 0x1F DUP4 ADD PUSH1 0x1F NOT AND PUSH1 0x20 ADD DUP6 PUSH2 0xF90 JUMP JUMPDEST DUP2 DUP5 MSTORE CALLDATASIZE PUSH1 0x24 DUP4 DUP4 ADD ADD GT PUSH2 0x1EA JUMPI DUP2 PUSH1 0x0 SWAP3 PUSH1 0x24 PUSH1 0x20 SWAP4 ADD DUP4 DUP8 ADD CALLDATACOPY DUP5 ADD ADD MSTORE PUSH2 0xBBD PUSH1 0x1 DUP1 PUSH1 0xA0 SHL SUB PUSH1 0x0 SLOAD AND CALLER EQ PUSH2 0x1172 JUMP JUMPDEST PUSH1 0x4 SLOAD PUSH1 0xFF DUP2 PUSH1 0x8 SHR AND SWAP1 PUSH1 0x3 DUP3 LT ISZERO PUSH2 0x1D4 JUMPI PUSH2 0xBDD PUSH1 0xFF SWAP3 ISZERO PUSH2 0x1123 JUMP JUMPDEST AND PUSH1 0x4 DUP2 LT ISZERO PUSH2 0x1D4 JUMPI PUSH1 0x1 SUB PUSH2 0xED1 JUMPI PUSH1 0xC SLOAD PUSH1 0x4 CALLDATALOAD LT ISZERO PUSH2 0xE98 JUMPI PUSH2 0xC05 PUSH1 0x4 CALLDATALOAD PUSH2 0x10D2 JUMP JUMPDEST POP SWAP1 PUSH1 0xFF PUSH1 0x3 DUP4 ADD SLOAD AND PUSH2 0xE60 JUMPI SELFBALANCE PUSH1 0x2 DUP4 ADD SLOAD GT PUSH2 0xE28 JUMPI DUP3 MLOAD SWAP1 DUP2 GT PUSH2 0xE12 JUMPI PUSH2 0xC34 PUSH1 0x4 DUP4 ADD SLOAD PUSH2 0xFB2 JUMP JUMPDEST PUSH1 0x1F DUP2 GT PUSH2 0xDCB JUMPI JUMPDEST POP DUP1 PUSH1 0x20 PUSH1 0x1F DUP3 GT PUSH1 0x1 EQ PUSH2 0xD5E JUMPI PUSH1 0x0 SWAP2 PUSH2 0xD53 JUMPI JUMPDEST POP DUP2 PUSH1 0x1 SHL SWAP2 PUSH1 0x0 NOT SWAP1 PUSH1 0x3 SHL SHR NOT AND OR PUSH1 0x4 DUP3 ADD SSTORE JUMPDEST PUSH1 0x1 PUSH1 0xFF NOT PUSH1 0x3 DUP4 ADD SLOAD AND OR PUSH1 0x3 DUP3 ADD SSTORE PUSH1 0x0 DUP1 DUP1 DUP1 PUSH1 0x1 DUP1 PUSH1 0xA0 SHL SUB PUSH1 0x1 SLOAD AND PUSH1 0x2 DUP7 ADD SLOAD SWAP1 DUP3 DUP3 ISZERO PUSH2 0xD4A JUMPI JUMPDEST CALL ISZERO PUSH2 0x3F0 JUMPI PUSH1 0x2 PUSH32 0xD22F69C6D4024C0A563AA2532097FEFFB1AD6071959A74D1621DCA2C72F680D8 SWAP2 ADD SLOAD PUSH1 0x40 MLOAD SWAP1 DUP2 MSTORE PUSH1 0x40 PUSH1 0x20 DUP3 ADD MSTORE DUP1 PUSH2 0xCE5 PUSH1 0x4 CALLDATALOAD SWAP5 PUSH1 0x40 DUP4 ADD SWAP1 PUSH2 0x1092 JUMP JUMPDEST SUB SWAP1 LOG2 PUSH1 0x1 PUSH1 0x0 PUSH1 0xC SLOAD SWAP1 JUMPDEST DUP2 DUP2 LT PUSH2 0xD01 JUMPI JUMPDEST POP POP PUSH2 0x2D3 JUMPI STOP JUMPDEST PUSH1 0xFF PUSH1 0x3 PUSH2 0xD0E DUP4 PUSH2 0x10D2 JUMP JUMPDEST POP ADD SLOAD AND ISZERO PUSH2 0xD3E JUMPI PUSH1 0x0 NOT DUP2 EQ PUSH2 0xD28 JUMPI PUSH1 0x1 ADD PUSH2 0xCF1 JUMP JUMPDEST PUSH4 0x4E487B71 PUSH1 0xE0 SHL PUSH1 0x0 MSTORE PUSH1 0x11 PUSH1 0x4 MSTORE PUSH1 0x24 PUSH1 0x0 REVERT JUMPDEST POP POP POP PUSH1 0x0 DUP2 DUP1 PUSH2 0xCF9 JUMP JUMPDEST POP PUSH2 0x8FC PUSH2 0xC9A JUMP JUMPDEST SWAP1 POP DUP4 ADD MLOAD DUP5 PUSH2 0xC54 JUMP JUMPDEST SWAP2 POP PUSH1 0x4 DUP4 ADD PUSH1 0x0 MSTORE PUSH1 0x20 PUSH1 0x0 KECCAK256 PUSH1 0x0 SWAP3 JUMPDEST PUSH1 0x1F NOT DUP4 AND DUP5 LT PUSH2 0xDB3 JUMPI PUSH1 0x1 SWAP4 POP DUP3 PUSH1 0x1F NOT DUP2 AND LT PUSH2 0xD9A JUMPI JUMPDEST POP POP DUP2 SHL ADD PUSH1 0x4 DUP3 ADD SSTORE PUSH2 0xC6B JUMP JUMPDEST DUP6 ADD MLOAD PUSH1 0x0 NOT PUSH1 0xF8 DUP5 PUSH1 0x3 SHL AND SHR NOT AND SWAP1 SSTORE DUP5 DUP1 PUSH2 0xD8B JUMP JUMPDEST DUP6 DUP2 ADD MLOAD DUP3 SSTORE PUSH1 0x20 SWAP4 DUP5 ADD SWAP4 PUSH1 0x1 SWAP1 SWAP3 ADD SWAP2 ADD PUSH2 0xD70 JUMP JUMPDEST PUSH1 0x4 DUP4 ADD PUSH1 0x0 MSTORE PUSH1 0x20 PUSH1 0x0 KECCAK256 PUSH1 0x1F DUP4 ADD PUSH1 0x5 SHR DUP2 ADD PUSH1 0x20 DUP5 LT PUSH2 0xE0B JUMPI JUMPDEST PUSH1 0x1F DUP4 ADD PUSH1 0x5 SHR DUP3 ADD DUP2 LT PUSH2 0xDFF JUMPI POP POP PUSH2 0xC3D JUMP JUMPDEST PUSH1 0x0 DUP2 SSTORE PUSH1 0x1 ADD PUSH2 0xDE9 JUMP JUMPDEST POP DUP1 PUSH2 0xDE9 JUMP JUMPDEST PUSH4 0x4E487B71 PUSH1 0xE0 SHL PUSH1 0x0 MSTORE PUSH1 0x41 PUSH1 0x4 MSTORE PUSH1 0x24 PUSH1 0x0 REVERT JUMPDEST PUSH1 0x40 MLOAD PUSH3 0x461BCD PUSH1 0xE5 SHL DUP2 MSTORE PUSH1 0x20 PUSH1 0x4 DUP3 ADD MSTORE PUSH1 0x10 PUSH1 0x24 DUP3 ADD MSTORE PUSH16 0x4E6F7420656E6F7567682066756E6473 PUSH1 0x80 SHL PUSH1 0x44 DUP3 ADD MSTORE PUSH1 0x64 SWAP1 REVERT JUMPDEST PUSH1 0x40 MLOAD PUSH3 0x461BCD PUSH1 0xE5 SHL DUP2 MSTORE PUSH1 0x20 PUSH1 0x4 DUP3 ADD MSTORE PUSH1 0x10 PUSH1 0x24 DUP3 ADD MSTORE PUSH16 0x105B1C9958591E481C995B19585CD959 PUSH1 0x82 SHL PUSH1 0x44 DUP3 ADD MSTORE PUSH1 0x64 SWAP1 REVERT JUMPDEST PUSH1 0x40 MLOAD PUSH3 0x461BCD PUSH1 0xE5 SHL DUP2 MSTORE PUSH1 0x20 PUSH1 0x4 DUP3 ADD MSTORE PUSH1 0x11 PUSH1 0x24 DUP3 ADD MSTORE PUSH17 0x496E76616C6964206D696C6573746F6E65 PUSH1 0x78 SHL PUSH1 0x44 DUP3 ADD MSTORE PUSH1 0x64 SWAP1 REVERT JUMPDEST PUSH1 0x40 MLOAD PUSH3 0x461BCD PUSH1 0xE5 SHL DUP2 MSTORE PUSH1 0x20 PUSH1 0x4 DUP3 ADD MSTORE PUSH1 0x13 PUSH1 0x24 DUP3 ADD MSTORE PUSH19 0x139BDD081B5A5B195CDD1BDB994B58985CD959 PUSH1 0x6A SHL PUSH1 0x44 DUP3 ADD MSTORE PUSH1 0x64 SWAP1 REVERT JUMPDEST CALLVALUE PUSH2 0x1EA JUMPI PUSH1 0x0 CALLDATASIZE PUSH1 0x3 NOT ADD SLT PUSH2 0x1EA JUMPI PUSH1 0x20 PUSH1 0x7 SLOAD PUSH1 0x40 MLOAD SWAP1 DUP2 MSTORE RETURN JUMPDEST CALLVALUE PUSH2 0x1EA JUMPI PUSH1 0x0 CALLDATASIZE PUSH1 0x3 NOT ADD SLT PUSH2 0x1EA JUMPI PUSH1 0x20 PUSH1 0x5 SLOAD PUSH1 0x40 MLOAD SWAP1 DUP2 MSTORE RETURN JUMPDEST CALLVALUE PUSH2 0x1EA JUMPI PUSH1 0x0 CALLDATASIZE PUSH1 0x3 NOT ADD SLT PUSH2 0x1EA JUMPI PUSH1 0xFF PUSH1 0x4 SLOAD PUSH1 0x8 SHR AND PUSH1 0x40 MLOAD PUSH1 0x3 DUP3 LT ISZERO PUSH2 0x1D4 JUMPI PUSH1 0x20 SWAP2 DUP2 MSTORE RETURN JUMPDEST CALLVALUE PUSH2 0x1EA JUMPI PUSH1 0x0 CALLDATASIZE PUSH1 0x3 NOT ADD SLT PUSH2 0x1EA JUMPI PUSH1 0x20 SWAP1 PUSH1 0x6 SLOAD DUP2 MSTORE RETURN JUMPDEST SWAP1 PUSH1 0x1F DUP1 NOT SWAP2 ADD AND DUP2 ADD SWAP1 DUP2 LT PUSH8 0xFFFFFFFFFFFFFFFF DUP3 GT OR PUSH2 0xE12 JUMPI PUSH1 0x40 MSTORE JUMP JUMPDEST SWAP1 PUSH1 0x1 DUP3 DUP2 SHR SWAP3 AND DUP1 ISZERO PUSH2 0xFE2 JUMPI JUMPDEST PUSH1 0x20 DUP4 LT EQ PUSH2 0xFCC JUMPI JUMP JUMPDEST PUSH4 0x4E487B71 PUSH1 0xE0 SHL PUSH1 0x0 MSTORE PUSH1 0x22 PUSH1 0x4 MSTORE PUSH1 0x24 PUSH1 0x0 REVERT JUMPDEST SWAP2 PUSH1 0x7F AND SWAP2 PUSH2 0xFC1 JUMP JUMPDEST SWAP1 PUSH1 0x40 MLOAD SWAP2 DUP3 PUSH1 0x0 DUP3 SLOAD SWAP3 PUSH2 0x1000 DUP5 PUSH2 0xFB2 JUMP JUMPDEST SWAP1 DUP2 DUP5 MSTORE PUSH1 0x1 SWAP5 DUP6 DUP2 AND SWAP1 DUP2 PUSH1 0x0 EQ PUSH2 0x106F JUMPI POP PUSH1 0x1 EQ PUSH2 0x102C JUMPI JUMPDEST POP POP PUSH2 0x102A SWAP3 POP SUB DUP4 PUSH2 0xF90 JUMP JUMPDEST JUMP JUMPDEST SWAP1 SWAP4 SWAP2 POP PUSH1 0x0 MSTORE PUSH1 0x20 SWAP1 DUP2 PUSH1 0x0 KECCAK256 SWAP4 PUSH1 0x0 SWAP2 JUMPDEST DUP2 DUP4 LT PUSH2 0x1057 JUMPI POP POP PUSH2 0x102A SWAP4 POP DUP3 ADD ADD CODESIZE DUP1 PUSH2 0x101C JUMP JUMPDEST DUP6 SLOAD DUP9 DUP5 ADD DUP6 ADD MSTORE SWAP5 DUP6 ADD SWAP5 DUP8 SWAP5 POP SWAP2 DUP4 ADD SWAP2 PUSH2 0x103F JUMP JUMPDEST SWAP2 POP POP PUSH2 0x102A SWAP5 POP PUSH1 0x20 SWAP3 POP PUSH1 0xFF NOT AND DUP3 DUP5 ADD MSTORE ISZERO ISZERO PUSH1 0x5 SHL DUP3 ADD ADD CODESIZE DUP1 PUSH2 0x101C JUMP JUMPDEST SWAP2 SWAP1 DUP3 MLOAD SWAP3 DUP4 DUP3 MSTORE PUSH1 0x0 JUMPDEST DUP5 DUP2 LT PUSH2 0x10BE JUMPI POP POP DUP3 PUSH1 0x0 PUSH1 0x20 DUP1 SWAP5 SWAP6 DUP5 ADD ADD MSTORE PUSH1 0x1F DUP1 NOT SWAP2 ADD AND ADD ADD SWAP1 JUMP JUMPDEST PUSH1 0x20 DUP2 DUP4 ADD DUP2 ADD MLOAD DUP5 DUP4 ADD DUP3 ADD MSTORE ADD PUSH2 0x109D JUMP JUMPDEST PUSH1 0xC SLOAD DUP2 LT ISZERO PUSH2 0x110D JUMPI PUSH1 0x5 SWAP1 PUSH1 0xC PUSH1 0x0 MSTORE MUL PUSH32 0xDF6966C971051C3D54EC59162606531493A51404A002842F56009D7E5CF4A8C7 ADD SWAP1 PUSH1 0x0 SWAP1 JUMP JUMPDEST PUSH4 0x4E487B71 PUSH1 0xE0 SHL PUSH1 0x0 MSTORE PUSH1 0x32 PUSH1 0x4 MSTORE PUSH1 0x24 PUSH1 0x0 REVERT JUMPDEST ISZERO PUSH2 0x112A JUMPI JUMP JUMPDEST PUSH1 0x40 MLOAD PUSH3 0x461BCD PUSH1 0xE5 SHL DUP2 MSTORE PUSH1 0x20 PUSH1 0x4 DUP3 ADD MSTORE PUSH1 0x13 PUSH1 0x24 DUP3 ADD MSTORE PUSH19 0x43616D706169676E206E6F7420616374697665 PUSH1 0x68 SHL PUSH1 0x44 DUP3 ADD MSTORE PUSH1 0x64 SWAP1 REVERT JUMPDEST SWAP2 SWAP1 DUP3 ADD DUP1 SWAP3 GT PUSH2 0xD28 JUMPI JUMP JUMPDEST ISZERO PUSH2 0x1179 JUMPI JUMP JUMPDEST PUSH1 0x40 MLOAD PUSH3 0x461BCD PUSH1 0xE5 SHL DUP2 MSTORE PUSH1 0x20 PUSH1 0x4 DUP3 ADD MSTORE PUSH1 0xE PUSH1 0x24 DUP3 ADD MSTORE PUSH14 0x139BDD08185D5D1A1BDC9A5E9959 PUSH1 0x92 SHL PUSH1 0x44 DUP3 ADD MSTORE PUSH1 0x64 SWAP1 REVERT JUMPDEST ISZERO PUSH2 0x11B6 JUMPI JUMP JUMPDEST PUSH1 0x40 MLOAD PUSH3 0x461BCD PUSH1 0xE5 SHL DUP2 MSTORE PUSH1 0x20 PUSH1 0x4 DUP3 ADD MSTORE PUSH1 0x12 PUSH1 0x24 DUP3 ADD MSTORE PUSH18 0x496E73756666696369656E742066756E6473 PUSH1 0x70 SHL PUSH1 0x44 DUP3 ADD MSTORE PUSH1 0x64 SWAP1 REVERT JUMPDEST PUSH2 0x100 PUSH2 0xFF00 NOT PUSH1 0x4 SLOAD AND OR PUSH1 0x4 SSTORE PUSH32 0x47768825BBD1C23D8787FDAA8500EBADC117722C311C5EA7D658A5BB66135BD7 PUSH1 0x0 DUP1 LOG1 JUMP JUMPDEST ISZERO PUSH2 0x122D JUMPI JUMP JUMPDEST PUSH1 0x40 MLOAD PUSH3 0x461BCD PUSH1 0xE5 SHL DUP2 MSTORE PUSH1 0x20 PUSH1 0x4 DUP3 ADD MSTORE PUSH1 0x12 PUSH1 0x24 DUP3 ADD MSTORE PUSH18 0x4E6F7420616C6C2D6F722D6E6F7468696E67 PUSH1 0x70 SHL PUSH1 0x44 DUP3 ADD MSTORE PUSH1 0x64 SWAP1 REVERT JUMPDEST ISZERO PUSH2 0x126E JUMPI JUMP JUMPDEST PUSH1 0x40 MLOAD PUSH3 0x461BCD PUSH1 0xE5 SHL DUP2 MSTORE PUSH1 0x20 PUSH1 0x4 DUP3 ADD MSTORE PUSH1 0x12 PUSH1 0x24 DUP3 ADD MSTORE PUSH18 0x10D85B5C185A59DB881B9BDD08195B991959 PUSH1 0x72 SHL PUSH1 0x44 DUP3 ADD MSTORE PUSH1 0x64 SWAP1 REVERT JUMPDEST PUSH2 0x200 PUSH2 0xFF00 NOT PUSH1 0x4 SLOAD AND OR PUSH1 0x4 SSTORE PUSH32 0x123D4F203B2B83BFE9F45903402BB88193CC56A43371D97AB5A51BD1817D8586 PUSH1 0x0 DUP1 LOG1 JUMP INVALID LOG2 PUSH5 0x6970667358 0x22 SLT KECCAK256 SWAP6 0x2D 0xE3 0xCC CALLCODE 0xEF MUL CODECOPY BYTE BASEFEE 0xD4 0xDE SWAP15 0xB7 0x5D ISZERO SWAP6 0xC6 0xE5 OR PUSH20 0xCCD054E0ECBB5A45ED393664736F6C6343000813 STOP CALLER BLOCKHASH JUMPI DUP8 STATICCALL SLT 0xA8 0x23 0xE0 CALLCODE 0xB7 PUSH4 0x1CC41B3B 0xA8 DUP3 DUP12 CALLER 0x21 0xCA DUP2 GT GT STATICCALL PUSH22 0xCD3AA3BB5ACEA2646970667358221220332C8B4B6911 CREATE2 MOD CALLER 0xF6 0xDF SWAP2 0xD3 0xC7 SWAP16 NUMBER BLOCKHASH 0xBF ISZERO 0x1E 0x2C CREATE MLOAD 0x5C PUSH27 0x37D4404FD9F80164736F6C63430008130033000000000000000000 "},"methodIdentifiers":{"campaigns(uint256)":"141961bc","createCampaign(address,address,string,string,uint256,uint256,uint8,string[],string[],uint256[],uint256,uint256)":"2203f43c","getCampaigns()":"a6b03633"}}}}}